:020000040801F1
:1000000050F40520850201084D3A01080124010839
:10001000493A01080F1A0108655001080000000064
:10002000000000000000000000000000C501010801
:10003000ED1A01080000000021020108574A0108DA
:100040009F0201089F0201089F0201089F02010808
:100050009F0201089F0201089F0201089F020108F8
:100060009F0201089F0201089F0201089F020108E8
:100070009F0201089F0201089D1A01089F020108C2
:100080009F0201089F0201089F0201089F020108C8
:100090009F0201089F0201089F0201089F020108B8
:1000A0009F0201089F0201089F0201089F020108A8
:1000B000F54B0108194C0108514C01089F02010839
:1000C0009F0201089F0201089F0201089F02010888
:1000D0009F020108014E0108814E0108354F0108B9
:1000E0009F020108254201089F0201089F020108A2
:1000F0009F0201089F0201089F0201089F02010858
:100100009F0201089F0201086D4C01089F0201082F
:10011000414D0108714D0108894C0108AD4C0108A1
:100120009F0201089F0201089F0201089F02010827
:100130009F020108F11A01089F0201089F020108AD
:100140009F0201089F0201089F0201089F02010807
:100150009F0201089F020108C51A0108C54F010846
:100160009F0201089F0201089F0201089F020108E7
:100170009F0201089F0201089F0201080000000081
:100180009F0201089F020108A14D0108D14D0108FD
:100190009F0201089F0201089F0201080000000061
:1001A0009F0201089F0201089F020108DFF810D09A
:1001B00001F03CFA00480047C5750308AFF3008022
:1001C00050F405202C4B19680868B0E8F04F80F314
:1001D0000988BFF36F8F4FF0000080F311887047DC
:1001E0000000000008480068006880F308884FF0AD
:1001F000000080F3148862B661B6BFF34F8FBFF37F
:100200006F8F00DF00BF00BF08ED00E0DFF80C00DB
:10021000016841F470010160704700BF88ED00E0A3
:10022000EFF30980BFF36F8F134B1A681EF0100FA6
:1002300008BF20ED108A20E9F04F106009B44FF09C
:10024000200080F31188BFF34F8FBFF36F8F40F012
:1002500065F94FF0000080F3118809BC196808683F
:10026000B0E8F04F1EF0100F08BFB0EC108A80F31A
:100270000988BFF36F8F704790070020EFF3058068
:10028000704700000648804706480047FEE7FEE743
:10029000FEE7FEE7FEE7FEE7FEE7FEE7FEE7FEE736
:1002A0006D4A0108AD0101082DE9F05F0546002007
:1002B00092469B4688460646814640241BE02846D7
:1002C00041464746224600F058FF53465A46C01A58
:1002D000914110D311461846224600F03FFF2D1AD7
:1002E00067EB01084F4622460120002100F036FF4F
:1002F00017EB00094E41201EA4F10104DFDC484643
:1003000031462A464346BDE8F09F0000004870474A
:1003100044CB050810B50446FFF7F8FF0068005D00
:1003200000F0010010BDA0F14101192900D82030D2
:10033000704700000649074A0868504343F23902F3
:100340001044086040087047014908607047000089
:10035000100800206D4EC64138B5D0E90221491E73
:1003600001EB410102EBC1014268C1EB011102EB5B
:1003700081010268C1EB011102EB8102D0E9043175
:1003800001EB410103EB81013023A1F5527191FB97
:10039000F3F4174D6C4302EBC41291FBF3F403FB2F
:1003A000141100921A2902DB124B1A4400920C22FB
:1003B00091FBF2F3104C6343009C04EBC3130093D6
:1003C00091FBF2F302FB13110C4A08E0491E40F2C4
:1003D000A324535C6343009C04EBC31300930029E4
:1003E000F4DC0146684600F0F1FE009838BD0000DC
:1003F0003F0C0F008051010067C2030048CB050885
:1004000010B5431A934209D28318881803E010F8F4
:10041000011D03F8011D521EF9D210BD40EA01036F
:100420009B0703D009E008C9121F08C0042AFAD2AA
:1004300003E011F8013B00F8013B521EF9D210BD58
:10044000D2B201E000F8012B491EFBD27047002216
:10045000F6E710B513460A4604461946FFF7F0FFC3
:10046000204610BD421E12F8013F002BFBD111F8AF
:10047000013B02F8013B002BF9D1704730B505462E
:100480002A460B4612F8010B13F8014B08B1A042A3
:10049000F8D01CB1002802D06D1CF1E7284630BD11
:1004A00010B5044604E00B7800F8013B03B1491C89
:1004B000521EF8D2204610BDCAB2401E10F8011FCD
:1004C0008A4202D00029F9D100207047421C10F85E
:1004D000011B0029FBD1801A704710B5002200E0F3
:1004E000521C835C8C5CA34201D1002BF8D1D8B2A2
:1004F000E1B2401A10BD30B504460020034600E0CA
:100500005B1C934203D2E05CCD5C401BF8D030BD55
:10051000034611F8012B00F8012B002AF9D11846E7
:10052000704730B505460020034600E05B1C93424F
:1005300005D2EC5CC85C201A01D1002CF6D130BD8C
:1005400070B50F4D00B92868002412E00A4602E099
:100550009E4203D0521C1378002BF9D1DAB2224309
:1005600005D02BB124B1002100F8011B04E00446A2
:10057000401C0678002EE9D12860204670BD00009E
:100580001408002030B503461D783DB10A4612F824
:10059000014B1CB1AC42FAD15B1CF5E7181A30BD17
:1005A00030B50546002008E00A4602E0A34207D025
:1005B000521C1378002BF9D1401C2C5C002CF3D179
:1005C00030BD00000FB400B58DB010A909900B909C
:1005D00000914FF0FF300A9000200C9005480690E3
:1005E000054807906A4609A80F9900F049FE0DB02A
:1005F0005DF814FB9D120108BB1201082DE9FF5F95
:100600001D464FF0FF3BD5E9014691465F464FF04E
:100610000008A9697F1C01988847296A8246884793
:100620000028F6D1BAF1FF3F0CD024F4C064002EAC
:1006300019DD600614D5BAF12B0F09D0BAF12D0FD0
:100640000ED103E0584604B0BDE8F09F44F4806446
:10065000A9697F1C01988847761E8246002E02DD1C
:10066000BAF1300F03D0B9F1000F26D032E0A969FA
:10067000761E44F400747F1C019888478246002E41
:1006800005DDBAF1780F06D0BAF1580F03D0B9F1F1
:10069000000F10D01EE0B9F1000F02D0B9F1100F19
:1006A00018D1A969761E24F400747F1C019888472C
:1006B0008246102002E0082000E00A20814609E07E
:1006C00008FB0908A969761E44F400747F1C019890
:1006D00088478246002E05DD4946504600F0BCFDA5
:1006E0000028EDDAE96901988847A00502D46FF087
:1006F0000100A8E7E00725D1600613D5600502D503
:10070000C8F1000000E0404629680A1D2A60096817
:10071000220501D5087015E0220701D5088011E0F7
:1007200008600FE02868011D29600068210502D5D6
:1007300080F8008006E0210702D5A0F8008001E0E3
:10074000C0F8008038467EE72DE9FF5FD2E901A7B7
:100750004FF00008916999461446DDF838B04646D6
:1007600001988847054659EA0B0005D009E0A169C0
:10077000761C019888470546216A28468847002844
:10078000F5D1681C03D05FEACA7005D015E04FF0C0
:10079000FF3004B0BDE8F09F2068011D2160D0F853
:1007A00000800AE05FEACA7001D108F8015BA16924
:1007B000761C7F1E019888470546002F1ADD681CAD
:1007C00018D0B9F1000F0DD0E81705EBD060421139
:1007D00020F01F0059F822102A1A012090400142EF
:1007E000E0D107E0BBF1000FDCD1216A2846884741
:1007F0000028D7D0E16901988847BBF1000F07D1E5
:10080000002E05DD5FEACA7002D1002188F80010D1
:10081000A068B84203DDBBF1000F03D017B16FF041
:100820000100B6E73046B4E72DE9FF4F087883B002
:100830009946FF2805D0491C2D2804D0002400200B
:1008400008E000200BE00124F9E700EB800003EB57
:100850004000491C0B78FF2BF7D104B14042002324
:100860000293147819461D462D2C01D02B2C04D14F
:10087000521C2D2C13D000240294AA461478FF2C6D
:100880000FD00A25A3FB057801FB05814FF0000C72
:1008900003FB0C11521CE3194AEB0101EEE70124A2
:1008A000EAE7814453EA010002D019F5C87F06DA6D
:1008B00003980021C0E9001107B0BDE8F08F0025C2
:1008C000AE4E2F46DFF8B882184600F08AFECDE91A
:1008D0000001B9F1000002DAC9F1000400E00446A9
:1008E0000023A74A1AEB030B42EB045A12E0E0077D
:1008F00007D02A4633463846414600F077FA074685
:1009000088462A4633461046194600F06FFA0546D7
:100910000E466410002CEAD1DDE90001B9F1000FA8
:100920005A46534606DA00F0D3FA3A46434600F0F8
:10093000CFFA05E000F05AFA3A46434600F056FA7C
:10094000029A0AB181F00041039AC2E90001B3E7BB
:100950002DE9FF4F1F468DB0D7E901464FF0FF3814
:100960002E2045464FF000090B90B9696D1C0E987A
:100970008847396A824688470028F6D1BAF1FF3F96
:100980000AD024F4D064002E11DDBAF12B0F08D068
:10099000BAF12D0F0BD102E0404611B08DE744F4BF
:1009A0008064B9696D1C0E9888478246761E694638
:1009B000600501D52D2000E02B208DF8000001F10D
:1009C000010B0DF1200809E0B9696D1C0E988847EC
:1009D00082460F9844F40074761E0560002E02DDF6
:1009E000BAF1300FF0D00B998A453ED144F0800423
:1009F00006E00F99681CA9F1010944F4007408602D
:100A0000B9696D1C761E0E98884782463028F0D052
:100A10002BE00B998A4505D1200603D444F08004CD
:100A2000761E18E0504604F055FF08B30DF113018F
:100A3000761E44F400748B4508D2AAF130000BF8FE
:100A4000010B200607D5A9F1010003E0200602D41E
:100A500009F101008146A00502D50F99681C0860C4
:100A6000B9696D1C0E9888478246002ED1DC53E090
:100A7000002E51DDBAF1650F02D0BAF1450F4BD10E
:100A8000A00549D5B9696D1C24F44074761E0E98F2
:100A900088478246002E0CDD2B2804D0BAF12D0F9A
:100AA00007D144F48074B9696D1C0E98884782465A
:100AB000761EE00501D52D2100E02B2108F8011B51
:100AC000CDF82C8021E00DF12901761E44F400744C
:100AD00088450CD2AAF1300010F0FF0088F8000021
:100AE00002D10B99884509D908F1010806E0E00513
:100AF00001D5244801E042F20F708146B9696D1CAE
:100B00000E98884782460F980560002E04DD5046F7
:100B100004F0E0FE0028D6D1F9690E988847FF203E
:100B20008BF8000088F800000020069007904B46E4
:100B30006A4608A906A8FFF777FEA00502D46FF061
:100B400001002AE714F0240F0AD0E00714D1DDE9F0
:100B500006123868031D3B600068C0E900120BE014
:100B6000DDE9060100F0C8FA0146E00704D1386863
:100B7000021D3A600068016028460EE7000014403C
:100B80000000F03FF1D8FFFF2DE9F04791460F46F6
:100B900080460446002614F8015B2DB1FFF7B6FB32
:100BA0000068405DC007F6D12B2D02D02D2D18D046
:100BB000641E4A463946204600F090FB27B139684A
:100BC000A14201D1C7F8008071054FF002040BD596
:100BD0004042002803DD04F09DFA0460A007BDE850
:100BE000F08746F48066E4E70028F8DA04F092FA29
:100BF00004606FF00040F2E72DE9F05F93460F4686
:100C000080460446002604F085FAD0F8009082461B
:100C100014F8015B2DB1FFF779FB0068405DC00758
:100C2000F6D12B2D02D02D2D1AD0641E0021CAF82A
:100C300000105A463946204600F050FB014627B1C5
:100C40003868A04201D1C7F80080DAF80000022815
:100C500009D0CAF80090700505D54842BDE8F09F5C
:100C600046F48066E2E70846F8E770B5064604F009
:100C700051FA046805460A2200213046FFF784FF36
:100C80002C6070BD70B5064604F044FA0468054651
:100C90000A2200213046FFF777FF2C6070BD2DE956
:100CA000FE4F804681EA0300C00F0C46009021F001
:100CB000004123F00045B8EB0200A94105D24046AF
:100CC000214690461C460B46024623F00040104346
:100CD00047D0270DC7F30A00C3F30A510290401A08
:100CE000019040286BDAC3F3130040F4801B009896
:100CF000924620B10023D2EB030A63EB0B0B019861
:100D00005946C0F14002504600F028FA06460D460A
:100D100050465946019A00F040FA10EB0800614134
:100D2000002487EA115284EAE7731A4340D0009AFC
:100D300062B3019A012A4FEA075215DC001B61EBEE
:100D400002014FF0004202EA0752CDE90042001CC6
:100D500041F5801132462B4600F0A4FB03B0BDE8FC
:100D6000F08F40462146F9E7001B61EB0201001CB1
:100D700041F5801300185B412018A2F5001747EBDE
:100D8000030140EAD570B6196D4111E06D084FEAD4
:100D9000360645EAC0754FEA0752001B61EB0201B7
:100DA000001C41F5801149084FEA300000195141FB
:100DB00032462B4603B0BDE8F04F00F064BB00980C
:100DC000012240000023D0EB020263EBE0730098A5
:100DD00021464FEAE074B8EB000061EB0401E9E75B
:100DE00083F000435BE781F0004158E72DE9FE4FB7
:100DF00081EA030404F0004421F0004100944FF024
:100E0000000B23F0004350EA01045ED052EA0304D1
:100E10005BD0C3F30A54C1F30A552C44A4F2F33453
:100E20000194A0FB0254C1F3130141F48011C3F3F8
:100E3000130343F4801301FB024400FB034E840AB6
:100E4000970A44EA815447EA8357A4FB076802954E
:100E50008D0A05FB07854FEA932C04FB0C542705EC
:100E6000029D4FEA065847EA1637B5EB08056EEBC8
:100E7000070C870E920E47EA811742EA8312A7FBFE
:100E80000201B6EB0B0164EB00042B0D43EA0C33BB
:100E90005E1844EB1C50DA465146E7FB0201C5F3ED
:100EA00013044FEA0B3343EA14534FEA0432019C14
:100EB00043EA0603A4F10C040294009CCDE900B4BB
:100EC00000F0F0FA03B0BDE8F08F00200146F9E72A
:100ED0002DE9F04D81EA030404F0004B21F00045B8
:100EE00014464FF0000A23F0004150EA050220D0DA
:100EF00054EA01021DD0C5F30A570246C5F3130395
:100F0000C1F31300C1F30A5640F4801543F4801373
:100F1000A7EB0608101BD64608F2FD3873EB050058
:100F200002D308F1010801E092185B41B8F1000F0B
:100F300003DA00200146BDE8F08D00204FF4801157
:100F4000064684460EE0171B73EB050705D3121BFC
:100F500063EB050306434CEA010C49084FEA3000F5
:100F600092185B4150EA0107EDD152EA030012D01A
:100F700082EA040083EA0501084305D0101BAB4157
:100F800006D20122002306E000224FF0004302E0D7
:100F90006FF0010253101AEB06004CEB085110EBF6
:100FA0000A0041EB0B01BDE8F04D00F06CBA30B423
:100FB000044696230800214604D0B62330BC002204
:100FC00000F033BA20460021F8E70EB5C10F80EAE1
:100FD000E0700844CA07002140F233438DE80E0058
:100FE0000A460B4600F05EFA03B000BD0EB540F2B3
:100FF000334102910021CDE900110A460B4600F071
:1010000051FA03B000BD20F00040C20DC0F316003D
:1010100040F400007F2A02DA0020014670470021D8
:10102000962A03DCC2F19602D0407047963A00F04F
:1010300095B870B5C1F30A5201F000450024C1F320
:10104000130140F2FF3341F480119A4201DA00208B
:1010500070BD40F233439A42A2F2334203DC524263
:1010600000F08BF800E090402C43F1D0404270BD7E
:1010700000F0004230F000400AD0C10D01F560716F
:10108000C0F3160042EA0151C208400711437047FD
:10109000002001467047000030B5041E71F10004C5
:1010A00004DB4FF00044404264EB0101141E73F175
:1010B000000405DB1C464FF00043524263EB04037F
:1010C0008B4208BF824230BD30B5041E71F100046E
:1010D00004DB4FF00044404264EB0101141E73F145
:1010E000000405DB1C464FF00043524263EB04034F
:1010F000994208BF904230BD01F0004330B421F066
:10110000004150EA010206D00A0DA2F56072C1F357
:101110001301002A02DC30BC00207047440F44EA6F
:10112000C104C100E01830BC00EBC25000F074B93B
:1011300030B50B46014600202022012409E021FAA7
:1011400002F59D4205D303FA02F5491B04FA02F5A4
:101150002844151EA2F10102F1DC30BD202A04DB77
:10116000203A00FA02F1002070479140C2F12003BA
:1011700020FA03F3194390407047202A04DB203AF9
:1011800021FA02F00021704721FA02F3D040C2F1A7
:1011900020029140084319467047202A06DBCB17EE
:1011A000203A41FA02F043EAE07306E041FA02F322
:1011B000D040C2F120029140084319467047000018
:1011C000014900F003B8000020EC052010B50068CC
:1011D0003C22B0FBF2F302FB1303B0FBF2F00B6016
:1011E000B0FBF2F302FB1303B0FBF2F018224B60EA
:1011F000B0FBF2F302FB1303B0FBF2F0021D8B60B5
:101200000723B2FBF3F403FB1422800040F2B55332
:1012100000F66C308A61B0FBF3F2B0FBF3F403FB31
:101220001400443280084A61C8613B2802D3920707
:1012300000D0401C0022074C13460A61E25C824247
:1012400003D8801A5B1C0B61F8E7401CC860084695
:1012500010BD000054CB05083A2800D2303820F0E9
:101260002002412A01D3A2F13700884201D34FF076
:10127000FF307047026811441378016018467047C8
:10128000D160044951610449116200211161114684
:1012900000F0DEB97512010815030108426842B179
:1012A000016811F8013B23B1521EC0E90012184633
:1012B00070470121C160881E704742685AB1C368F7
:1012C000016843B983688B4205D0491E521CC0E9AE
:1012D0000012002070474FF0FF3070472DE9F05F9B
:1012E00082460078002715468B460AF10104B9466C
:1012F000302801D09DB113E014F8010B01277828A4
:1013000003D0582801D045B10AE00DB1102D07D106
:101310000027102514F8010B02E0082500E00A253B
:101320000026B0460EE005FB080005FB06F101278C
:1013300001EB10461FFA80F8B6F5803F00D3B9469E
:1013400014F8010B2946FFF787FF0028EBDABBF101
:10135000000F05D00FB1641E00E05446CBF80040EA
:10136000B9F1000F06D003F0D5FE02210160C81EBE
:10137000BDE8F09F48EA0640FAE700000FB40023FA
:1013800000B589B00CA900910B996FF00042CB60B9
:101390001E4B06931E4B07930423CDE901321D4AD1
:1013A000089202466B460020FFF7D2FA09B05DF8BA
:1013B00014FB70B586B006464FF0FF300091CDE9C2
:1013C0000101002015460C4604903246694604A8E7
:1013D000FFF7D4FF02460498211825B108B108464A
:1013E00000E020462860049800280DD0002A02DD85
:1013F0000098884208D0081B0094CDE901043246C9
:10140000694604A8FFF7BAFF06B070BD9D12010837
:10141000BB120108150301080029A8BF7047401C32
:10142000490008BF20F00100704710B4B0FA80FCFA
:1014300000FA0CF050EA010404BF10BC704749B137
:10144000CCF1200421FA04F411FA0CF118BF0121A7
:1014500021430843A3EB0C01CB1D4FEA00614FEA87
:10146000102042BF002010BC704700EBC350104456
:101470000029A4BF10BC7047401C490008BF20F0E1
:10148000010010BC704710B5141E73F1000408DA97
:10149000401C41F1000192185B411A4301D120F038
:1014A000010010BD2DE9F04D92469B4611B1B1FAF5
:1014B00081F202E0B0FA80F220329046FFF74EFE51
:1014C00004460F4640EA0A0041EA0B0153465A46D9
:1014D000084313D0114653EA010019D0C8F1400265
:1014E0005046FFF74AFE05460E46504659464246CC
:1014F000FFF734FE084305D0012004E020463946BA
:10150000BDE8F08D0020054346EAE0762C433743E2
:101510000A986305E40AA0EB08000022FD0A44EAE9
:1015200047540A3002D500200146E9E701051019A9
:101530006941DDE9084500196941BDE8F04DA2E7C0
:101540002DE9F04D00231A461B1A8A4103DB0020C7
:101550000146BDE8F08DC1F30A52C1F3130141F415
:1015600080154FF0000BD10702D100186D41521EBB
:101570000027044640F2FF11384601EB620A3E465E
:101580008046024600204FF48011FFF7F6FDC21995
:101590007141BB1846EB0100B4EB030C75EB000C7A
:1015A00004D3E41A65EB000517460E46241908F12A
:1015B00001006D4180463428E3DDF91946EB060051
:1015C000091BA84103D24FF0FF32134601E000226D
:1015D00013461BEB070046EB0A51BDE8F04DFFF741
:1015E00052BF0EB540F2334202920022CDE90022F2
:1015F0001346FFF757FF03B000BDC1F30A52C1F312
:10160000130140F2FF3341F480119A4202DA0020C4
:101610000146704740F233439A42A2F2334202DC61
:101620005242FFF7AABDFFF799BD0000064C074DD7
:1016300006E0E06840F0010394E8070098471034A2
:10164000AC42F6D3FEF7B6FDD8D6050808D7050894
:101650002DE9F34F8BB04FF0000801F10C000C4660
:101660004FF0010B46460DF1080A01906269012115
:1016700001989047051E2DD0252D2CD0216A884732
:10168000C0B16269012101989047216A884700280A
:10169000F7D1411E62690198904700E0761CA1696C
:1016A0000B988847216A88470028F7D1E1690B9891
:1016B0008847DBE7A1690B9888470746A84201D114
:1016C000761CD3E7E1690B9888477F1C02D1B8F1FB
:1016D000000F6FD047E1002762693D463946019807
:1016E00090472A2804D16269012101989047012579
:1016F000DFF888926269012101989047A0F13001DA
:101700000A290AD24F45E5DC07EB870100EB4107C8
:10171000303FDFD445F01005ECE7E90601D46FF067
:1017200000476C280AD04C2814D0682815D06A28A5
:101730000DD074281CD07A281AD01DE062690121CE
:10174000019890476C2802D045F0040514E045F05C
:1017500002050DE045F020050AE0626901210198CB
:101760009047682802D045F0080505E045F400657B
:101770006269012101989047C4E9015765283DD06D
:1017800019DC58287AD00CDC452837D004DC252811
:1017900026D0412831D131E046282FD047282CD1FE
:1017A0002CE05B2877D0612828D063287CD064287F
:1017B00023D15AE0D1E06F2848D008DC66281DD03C
:1017C00067281BD0692821D06E2816D127E0702801
:1017D00045D0732868D0752847D078280DD14DE0C2
:1017E000A1690B988847054625283FF469AFE16950
:1017F0000B9888476D1C3FF46AAFB4E023466A46F5
:101800006FF001000B99FFF7A3F89FE045F040004F
:101810006060A80723464FF0000236D43EE0E80798
:101820007FF447AF2068011D21600068290501D5BC
:1018300006701BE7290701D5068017E7A90703D51E
:10184000F117C0E9006111E706600FE745F04000BD
:101850006060A80723464FF0080216D41EE040F649
:101860000E0125EA0100606016E045F0400060606E
:10187000A80723464FF00A0207D40FE045F04000C6
:101880006060A80708D5234610226FF001000B996D
:10189000AFF300805AE007E0234610226FF001000A
:1018A0000B99FEF7ABFE51E04FF000094F464B4657
:1018B000632802D05B2807D041E02079C00601D41C
:1018C0000120A06001273AE0626901210198904758
:1018D0005E2805D14FF00109626949460198904799
:1018E000216939B900210A46534643F82120491C91
:1018F0000829FADBB0B3216969B9C11700EBD162DD
:1019000053110AEB830122F01F02821A01200B6897
:10191000904003430B6062690121019890475D2864
:10192000E8D1B9F1000F09D00020514651F820202C
:10193000D24341F82020401C0828F7DB02AB2246A6
:1019400000976FF001000B99FEF7FEFE00280CDAFD
:10195000401C08D1BBF1000F05D04FF0FF300DB097
:10196000BDE8F08FFFE74046F9E7E90701D108F14C
:10197000010806444FF0000B78E60000CCCCCC0CFC
:1019800070B58C1810F8015B15F0070301D110F841
:10199000013B2A1106D110F8012B03E010F8016B6E
:1019A00001F8016B5B1EF9D12B0705D40023521EF1
:1019B0000DD401F8013BFAE710F8013BCB1A921C59
:1019C00003E013F8015B01F8015B521EF9D5A14257
:1019D000D8D3002070BD01460020302905DB39290D
:1019E00003DCA1F13002D0B210E0412905DB462929
:1019F00003DCA1F13702D0B208E0612905DB6629DA
:101A000003DCA1F15702D0B200E0FF20704700BF15
:101A1000FEE7F8B505460E464FF6FF7448F205009E
:101A200000906946684600F015FE10E015F8010BBD
:101A30004440002009E004F0010121B1BDF800108C
:101A400081EA640400E06410401C0828F3DB301EC7
:101A5000A6F10106EAD12046F8BD0000F8B5064619
:101A60000D461446002741F2BA30844208D12B4675
:101A7000202208493046009402F068F9074607E042
:101A80002B46692204493046009402F05FF907466C
:101A90003846F8BDCE0500206505002010B520228F
:101AA000032106480CF0F1F938B120220321034844
:101AB0000CF0CCF901200249086010BD0060024022
:101AC000C002002010B52022072106480CF0DDF9E5
:101AD00038B12022072103480CF0B8F9012002494F
:101AE000086010BD00640240A802002000BFFEE7AD
:101AF00008B50020009010480EF0EAFB012804D140
:101B000069460E4800683FF003F90B480EF0D4FB1D
:101B100009480A300EF0D0FB009858B100BF009879
:101B200038B14FF0805006490860BFF34F8FBFF3C4
:101B30006F8F00BF08BD00000605040000050020EF
:101B400004ED00E00146002016E00F4A52F8202084
:101B50008A420FD10C4A92F88020521E0A4B53F849
:101B6000222043F820201A4692F88020521E83F843
:101B7000802006E0421CD0B2034A92F880208242C4
:101B8000E3DC00BF70470000340800202DE9FF416E
:101B900080460D46B8F1000F00D025B94FF0FF3058
:101BA00004B0BDE8F081224890F880400020009009
:101BB000019002900390002623461EA21021684641
:101BC00003F062FA69464046FEF74CFC6846FEF7B1
:101BD0007DFC304486B2002C1BDD002717E006F1A7
:101BE0000A00A84200DB15E0114850F8273013A284
:101BF0001021684603F048FA69464046FEF732FC79
:101C00006846FEF763FC304486B2781CC7B2A74230
:101C1000E5DB00BFB01CA84203DC0AA14046FEF78A
:101C200021FC7F2C01DD7F20BAE760B2B8E700001D
:101C3000340800204552523D257500002C253038CF
:101C4000580000003B00000070B505460C462246D7
:101C5000294603A003F008FA04B970BD00BFFEE7EF
:101C600057726F6E6720706172616D657465727313
:101C70002076616C75653A2066696C652025732055
:101C80006F6E206C696E652025640D0A00000000EF
:101C90001D49884205D11D4A1160012182F880103A
:101CA0007047002108E0194A52F82120164B9A4249
:101CB00000D1F5E74A1CD1B2144A92F880208A423A
:101CC000F1DC002107E0114A52F82120824200D1C4
:101CD000E6E74A1CD1B20D4A92F880208A42F2DC33
:101CE0000A4991F8801020290BDA084991F88010F0
:101CF000064A42F82100114691F88010491C82F8EA
:101D0000801000BFCCE70000000010103408002055
:101D100070472DE9F04107460D461646002409E0BC
:101D200055F824103846FEF7D8FB10B92046BDE818
:101D3000F081641CB442F3DB4FF0FF30F7E70000A2
:101D400030B585B0054605F0D3FB0446E179A279AC
:101D500060790838E378CDE90130CDE90321A07836
:101D60000090238803A22021284603F08DF905B0B6
:101D700030BD0000253034642D253032642D2530EF
:101D8000326454253032643A253032643A25303298
:101D9000642E3030305A000070B586B005466E466D
:101DA00000240CE0FEF7C6FA5A2190FBF1F201FB89
:101DB00012000A30C0B20DF80400601CC4B2162C28
:101DC000F0DB16222946304606F03EFD06B070BD17
:101DD0002DE9F0419EB005460E4617461C466B465F
:101DE0003A463146284608F0E9FA8046424619A9A3
:101DF000684631F01BF91422214619A806F024FD8B
:101E00001EB0BDE8F081000070B5A0B00546002608
:101E100080216846FEF71BFB0024284601F054FE93
:101E200000282CD118A11B48FEF757FB58B91AA15E
:101E30002846FEF723FB044617A104F11400FEF721
:101E40001DFB044604E014A12846FEF717FB0446D8
:101E500094B16A4614A12046FEF7B4FB01280BD1C9
:101E60006A461BA10B48D63003F028F96A4618A130
:101E7000184803F023F904E06FF0010601E04FF089
:101E8000FF36304620B070BD5469616E64792054CD
:101E900065636800DC4904203C74743A506C6169E5
:101EA0006E546578743E00003C74743A506C6169FD
:101EB0006E546578743E253132375B5E3C5D3C2F55
:101EC00074743A506C61696E546578743E00000019
:101ED00025730000524B04202DE9F04105460024F3
:101EE00025E004EB4400154911F8200029888842B8
:101EF0001CD104EB4403114F07EB8303198904EB56
:101F0000440307EB830358680D4B1A689047064655
:101F100004EB4400394601EB8000807AB04201D1E5
:101F2000012600E000263046BDE8F081641C05482B
:101F300000788442D5DB0020F6E70000BC030020D7
:101F4000A40300201A26050870B52DED028B82B07F
:101F500006460C461546294620460BF0A9FAB0EE77
:101F6000408A002000900190BCEEC80A8DED000A66
:101F70009DED000AB8EE400A38EE400AB0EE408A05
:101F80009FED080A28EE000ABCEEC00A8DED010A9A
:101F900005A13046DDE9002303F090F802B0BDEC66
:101FA000028B70BD0000C84225642E2530326400CB
:101FB0002DE9F04781460F46154698460024002635
:101FC00029464846FEF75AFA044641464846FEF777
:101FD00055FA064614B10EB1B44203D94FF0FF30A2
:101FE000BDE8F0872846FEF771FA0444321B21460B
:101FF0003846FEF705FA0020F2E7000030B52DED77
:10200000028B83B005460C4620460BF0BFFAB0EEBB
:10201000408A002001900290BCEEC80A8DED010AB2
:102020009DED010AB8EE400A38EE400AB0EE408A53
:102030009FED080A28EE000ABCEEC00A8DED020AE8
:1020400005A12846DDE9012303F038F803B0BDEC13
:10205000028B30BD0000C84225642E25303264005A
:1020600001480068704700009C0200202DE9F04103
:1020700007460D4616464FF0010800F057FA1C4976
:10208000087800F025FA00F08DFA10B14FF0000842
:1020900028E0384600F01CFA00F084FA10B14FF046
:1020A00000081FE000F042FA11490978491CC8B243
:1020B00000F00EFA00F076FA10B14FF0000811E0CF
:1020C00000240CE0701EA04204D1002000F0D2F9E0
:1020D000285503E0012000F0CDF92855641CB442D6
:1020E000F0D300BF00F040FA4046BDE8F0810000A8
:1020F000EE0200202DE9F04107460D4616464FF04E
:102100000108002400F012FA1549087800F0E0F9FF
:1021100000F048FA08B1A04617E0384600F0D8F9B8
:1021200000F040FA10B14FF000080EE0002409E082
:10213000285D00F0CDF900F035FA10B14FF000083D
:1021400003E0641CB442F3D300BF00F00DFAB8F111
:10215000000F02D00120BDE8F0810020FBE7000065
:10216000EE0200202DE9F04395B080460E4617465A
:10217000282108A8FEF76BF94FF000090024002081
:1021800005900690079005A832F0A8F940F2DC51BE
:102190003948FEF75CF9384D0698000CADF8480058
:1021A000069880B2ADF84A000798000CADF84C00D4
:1021B000FEF7C0F842F2283190FBF1F201FB120069
:1021C00000F57A7080B2ADF84E00FEF7B3F842F237
:1021D000283190FBF1F201FB120000F57A7080B219
:1021E000ADF85000FEF7A6F842F2283190FBF1F26C
:1021F00001FB120000F57A7080B2ADF85200BDF814
:102200005200BDF85010BDF84E20BDF84C30CDE95D
:102210000132CDE90310BDF84A000090BDF8483006
:1022200016A108A8059A02F049FF1DA226A128467A
:1022300002F044FF0446281924A223A102F03EFF25
:102240000444281908AA20A102F038FF04442819E0
:1022500022A21DA102F032FF04440020285533467B
:10226000224629464046009701F070FD81464846C7
:1022700015B0BDE8F0830000141C0010253038585C
:102280002D253034582D253034582D253034582DF7
:10229000253034582530345825303458000000009B
:1022A0003C3F786D6C2076657273696F6E3D2231AC
:1022B0002E302220656E636F64696E673D227574EF
:1022C000662D38223F3E0000257300003C50726F9F
:1022D00062653E3C557569643E0000003C2F5575B3
:1022E00069643E3C54797065733E696E71756972BC
:1022F000793C2F54797065733E3C2F50726F626544
:102300003E00000070B504460D4603E0207800F062
:1023100007F8641C281EA5F101018DB2F6D170BD2D
:1023200070B50546002405E0641CB4F5FA6F01D9C8
:10233000002070BD0221154832F000F80028F3D0CB
:102340002946124831F0A1FF002405E0641CB4F5D1
:10235000FA6F01D90020ECE701210C4831F0EEFFC3
:102360000028F3D0094831F08CFFC5B2002405E005
:10237000641CB4F5FA6F01D92846DAE780210348D6
:1023800031F0DCFF0128F3D02846D2E700380040C6
:1023900070B504460D4603E0207800F007F8641C91
:1023A000281EA5F101018DB2F6D170BD70B50546AC
:1023B000002405E0641CB4F5FA6F01D9002070BD5B
:1023C00002210E4831F0BAFF0028F3D029460B480D
:1023D00031F05BFF002405E0641CB4F5FA6F01D90D
:1023E0000020ECE70121054831F0A8FF0028F3D0D8
:1023F000024831F046FFC0B2E1E70000003C004077
:1024000000BFFEE710B580210A4810F0EEFB16F081
:10241000ABFF0221084810F0E8FB16F095FF802181
:10242000044810F0E4FB16F08FFF8021014810F003
:10243000DCFB10BD001002400004024010B58021FA
:102440000A4810F0D2FB16F08FFF0221084810F066
:10245000CEFB16F079FF8021044810F0C8FB16F07F
:1024600073FF8021014810F0C0FB10BD0010024036
:102470000004024070B50546002416F06BFF0026EC
:1024800018E08021104810F0B0FB16F05DFF6006E8
:10249000040E02210D4810F0B3FB08B1601CC4B259
:1024A00016F052FF8021084810F0A1FB16F04CFFF7
:1024B000701CC6B2082EE4DB15B9FFF7BFFF01E0C0
:1024C000FFF7A0FF204670BD00100240000402404C
:1024D00070B5044616F048FF8021124810F085FBC5
:1024E00000251CE0E00920B102210F4810F07FFB1D
:1024F00003E002210C4810F078FB6006040E16F091
:1025000023FF8021074810F072FB16F01DFF802189
:10251000044810F06AFB16F017FF681CC5B2082DBE
:10252000E0DB70BD001002400004024010B516F060
:102530001BFF02210A4810F05AFB16F005FF80210C
:10254000084810F054FB16F0FFFE0221044810F07A
:102550004CFB16F0F9FE8021024810F046FB10BD3E
:10256000000402400010024010B516F0FDFE80216C
:102570000A4810F03AFB16F0E7FE0221084810F076
:1025800034FB16F0E1FE8021044810F030FB0221FC
:10259000034810F02CFB16F0D7FE10BD00100240CF
:1025A0000004024010B5002416F0D4FE02211048A9
:1025B00010F01DFB16F0C8FE80210E4810F017FB2E
:1025C00016F0C2FE07E0601CC4B2FA2C03DDFFF770
:1025D000CBFF012010BD0221054810F011FB00289F
:1025E000F1D18021034810F000FB0020F2E7000049
:1025F00000040240001002402DE9F04107460C465D
:10260000154698460026224629460CA0FFF781FB76
:102610000746781C78B100BF0BE055F8260007A1EB
:10262000FDF75BFF18B9002108462FF055F8701C24
:10263000C6B2A642F1DB03A0BDE8F0816C6F67690A
:102640006E0000002F70617273652E7368746D6C7C
:10265000000000003CB502460023009301930020D7
:102660000FE00B880124844023404BB1BDF80030BB
:10267000C0F10F050124AC4023439BB2ADF80030FC
:10268000401C1028EDDBBDF8003013803CBD38B590
:102690000446042C2AD169462E2000F0E3FA08B93A
:1026A000002038BD9DF8000000F01F0000909DF84C
:1026B000000000909DF800102E2000F00BFD08B9DE
:1026C0000020EEE76946242000F0CCFA08B900208B
:1026D000E7E79DF8000000F0BF0000909DF80010B3
:1026E000242000F0F7FC08B90020DAE794BB694623
:1026F000242000F0B7FA08B90020D2E79DF80000C6
:1027000000F0BF0000909DF8000040F040000090F5
:102710009DF80010242000F0DDFC08B90020C0E77F
:1027200069462E2000F09EFA08B90020B9E79DF80E
:10273000000000F01F0000909DF8000040EA8410A7
:10274000C0B200909DF800102E2000F0C3FC08B924
:102750000020A6E7FFE7012C32D16946242000F0D3
:1027600081FA08B900209CE79DF8000000F0BF0046
:1027700000909DF8000040F0400000909DF800108F
:10278000242000F0A7FC08B900208AE769462E2023
:1027900000F068FA08B9002083E79DF8000000F017
:1027A0001F0000909DF8000040EA8410C0B2009025
:1027B0009DF800102E2000F08DFC08B9002070E775
:1027C000022C32D16946242000F04CFA08B90020CE
:1027D00067E79DF8000000F0BF0000909DF8000042
:1027E00040F0400000909DF80010242000F072FCA2
:1027F00008B9002055E769462E2000F033FA08B9E1
:1028000000204EE79DF8000000F01F0000909DF8AA
:10281000000040EA8410C0B200909DF800102E2005
:1028200000F058FC08B900203BE7032C32D1694680
:10283000242000F017FA08B9002032E79DF80000C4
:1028400000F0BF0000909DF8000040F040000090B4
:102850009DF80010242000F03DFC08B9002020E77E
:1028600069462E2000F0FEF908B9002019E79DF80E
:10287000000000F01F0000909DF8000040EA841066
:10288000C0B200909DF800102E2000F023FC08B983
:10289000002006E7012004E7F8B504466D466E1CEB
:1028A0002946282000F0DEF908B90020F8BD31469D
:1028B000292000F0D7F908B90020F7E7BDF900009A
:1028C000208029462A2000F0CDF908B90020EDE744
:1028D00031462B2000F0C6F908B90020E6E7BDF923
:1028E0000000608029462C2000F0BCF908B90020C7
:1028F000DCE731462D2000F0B5F908B90020D5E716
:10290000BDF90000A0800120D0E7000030B52DED1A
:10291000108B93B09FEDB20AF0EE40EA9FEDB00A43
:102920008DED110AB7EE000A8DED100AB7EE000A20
:1029300010EE104A9FEDAB0B8DED0E0B9FEDA90B2A
:10294000B0EE408AF0EE608A9FEDA60BB0EE40BA82
:10295000F0EE60BA00200A900990089008AA09A930
:102960000AA811F0A5FDA1490968BDF92820501A4F
:10297000002801DB014600E041421E2907DBBDF9CA
:1029800028000B90BDF928009849086002E097489C
:1029900000680B9095494968BDF92420501A002819
:1029A00001DB014600E041421E2907DBBDF924009E
:1029B0000C90BDF924008D49486002E08B484068C6
:1029C0000C908A498968BDF92020501A002801DB43
:1029D000014600E041421E2907DBBDF920000D90B1
:1029E000BDF920008149886002E0804880680D9030
:1029F0000B9949430C9A02FB02110D9A02FB02103B
:102A0000FEF7E3FACDE90E019DED0E0B02F086FD17
:102A1000B0EE40CAF0EE60CA51EC1C0BFEF76CFB46
:102A20000546FEF725FB41EC180B9FED6E0B53ECB2
:102A3000102B51EC180BFEF72FFB05D19FED6C0B03
:102A4000B0EE408AF0EE608A0B98FEF7BEFA41ECD9
:102A50001D0B53EC182BFEF73BFA41EC1C0BFEF759
:102A60004BFB09EE100A0C98FEF7AFFA41EC1D0B78
:102A700053EC182BFEF72CFA41EC1C0BFEF73CFB39
:102A800009EE900A0D98FEF7A0FA41EC1D0B53ECED
:102A9000182BFEF71DFA41EC1C0BFEF72DFB0AEE7E
:102AA000100A29EE2E0ADDED110A09EEA00ADDED6D
:102AB000100A0AEE200AF0EE40AA2AEE0A0A10EEE8
:102AC000101A0846FEF7D4FA29EEA90ACDE9020148
:102AD00010EE101A0846FEF7CBFA41EC1C0B29EE5B
:102AE000090A10EE101A0846FEF7C2FA41EC1D0B57
:102AF00053EC1C2BFEF7D3F841EC1F0B9DED020BA2
:102B000053EC102BFEF7CBF8CDE904019DED040B3F
:102B100002F004FD8DED060B9DED060B51EC100B44
:102B2000FEF7EAFA0546FEF7A3FA41EC1B0B9FED10
:102B30002D0B53EC102B51EC1B0BFEF7ADFA05D10E
:102B40009FED2B0BB0EE40BAF0EE60BA2046FEF7D8
:102B50008FFA53EC1B2BCDE900019DED000B51ECDE
:102B6000100BFEF743F941EC1F0B1AEE900AFEF72B
:102B70007FFA53EC1F2BCDE902019DED020B51ECC6
:102B8000100BFEF7A5F9CDE904019DED040B02F051
:102B9000F3FAB0EE40CAF0EE60CA9FED170B53ECAB
:102BA000102B51EC1C0BFEF721F99FED150B53EC8C
:102BB000102BCDE906019DED060B51EC100BFEF735
:102BC00087F941EC1D0BFEF797FA0EEE100ABCEEEA
:102BD000CE0A10EE100A80B213B0BDEC108B30BDDF
:102BE000000000000000000000000000EC290120AF
:102BF0008DEDB5A0F7C6B03E000000000080664035
:102C00001F85EB51B81E094010B540F604402CF06A
:102C100029FD40F601402CF025FD802301221146BC
:102C20000E480FF0F6FF8023022200210B4810F01F
:102C300020F802230122114609480FF0EAFF02237F
:102C40001A460021064810F014F8802103480FF0BE
:102C5000CEFF022102480FF0CAFF10BD0010024053
:102C60000004024070B504460D460848007830B1B3
:102C7000012229462046FFF7F9F9012070BD012203
:102C80002946204611F092FC0120F7E7EC020020D3
:102C900008B569462420FFF7E5FF08B9002008BD04
:102CA0009DF8000000F07F0000909DF8000040F0CB
:102CB000800000909DF80010242000F00BFA08B965
:102CC0000020ECE70021202000F004FA0021212060
:102CD00000F000FA0021222000F0FCF9002123205E
:102CE00000F0F8F90021242000F0F4F9002125205B
:102CF00000F0F0F90420FFF7CAFC0120CFE7000044
:102D000010B540F604402CF0ADFC40F601402CF02C
:102D1000A9FC40F604402CF0A5FC802300220121F0
:102D20000E480FF076FF8023022200210B480FF09F
:102D3000A0FF02230022012109480FF06AFF0223AD
:102D40001A46002106480FF094FF4FF480730022CA
:102D5000114602480FF05DFF10BD00000010024058
:102D60000004024070B505460024002624E08021BE
:102D700015480FF03AFF05F0800020B102211348FA
:102D80000FF035FF03E0022110480FF02EFF680618
:102D9000050E80210C480FF02AFF6006040E4FF448
:102DA000807109480FF02CFF10B144F0010401E0DC
:102DB00024F00104701CC6B2082ED8DB8021024822
:102DC0000FF013FF204670BD0010024000040240C7
:102DD00038B5044669462020FFF744FF08B90020B3
:102DE00038BD9DF8000000F0F800009004F00700E6
:102DF0009DF80010084300909DF80010202000F07E
:102E000069F908B90020EBE70120E9E738B5044685
:102E100069462320FFF726FF08B9002038BD9DF83A
:102E2000000000F07F0000909DF8000040EAC41010
:102E3000C0B200909DF80010232000F04BF908B9B3
:102E40000020EBE70120E9E738B504466946382061
:102E5000FFF708FF08B9002038BD9DF8000000F01A
:102E6000C00000909DF80000204300909DF80010E5
:102E7000382000F02FF908B90020EDE70120EBE73A
:102E800010B5044621463C2000F024F908B9002082
:102E900010BD0120FCE710B504467F2C01DD0020A9
:102EA00010BD21463B2000F015F908B90020F7E7D6
:102EB0000120F5E710B504467F2C01DD002010BD90
:102EC00021463A2000F006F908B90020F7E7012072
:102ED000F5E710B5044621463D2000F0FBF808B99F
:102EE000002010BD0120FCE738B5044669462320C8
:102EF000FFF7B8FE08B9002038BD9DF8000000F0CB
:102F0000CF0000909DF8000040EA0410C0B200908D
:102F10009DF80010232000F0DDF808B90020EBE751
:102F20000120E9E738B5044669462120FFF79AFEFB
:102F300008B9002038BD9DF8000000F03F00009067
:102F40009DF8000040EA8410C0B200909DF8001087
:102F5000212000F0BFF808B90020EBE70120E9E7E5
:102F600038B5044669462220FFF77CFE08B90020E8
:102F700038BD002000909DF80000204300909DF88F
:102F80000010222000F0A6F808B90020F0E7012088
:102F9000EEE738B5044669462520FFF763FE08B919
:102FA000002038BD002000909DF8000020430090D4
:102FB0009DF80010252000F08DF808B90020F0E7FA
:102FC0000120EEE71CB5044601A92020FFF74AFEC8
:102FD00008B900201CBD69462320FFF743FE08B94D
:102FE0000020F7E79DF8040000F0F00038B9294808
:102FF000007800F0F0009DF804100843019024B11F
:10300000012C1FD0022C30D109E09DF80400214989
:1030100008709DF8040000F00F00019027E09DF873
:10302000040000F0F70001909DF8040001909DF865
:10303000000000F0F70000909DF8000040F008004C
:10304000009014E09DF8040000F0F70001909DF856
:10305000040040F0080001909DF8000000F0F70027
:1030600000909DF80000009001E00020B2E700BF52
:103070009DF80410202000F02DF808B90020A9E7E1
:103080009DF80010232000F025F808B90020A1E7E2
:1030900001209FE7ED02002038B504466946202054
:1030A000FFF7E0FD08B9002038BD9DF8000000F0F2
:1030B0000F0000909DF8000040EA0410C0B200909C
:1030C0009DF80010202000F005F808B90020EBE77B
:1030D0000120E9E713B504460848007830B1012221
:1030E00001A92046FFF706F801201CBD012201A915
:1030F000204611F075FA0120F7E70000EC020020ED
:1031000070B503460024002010E00E5C451C4D5DA8
:1031100046EA0526851C4D5D46EA0546C51C4D5D03
:1031200046EA056543F82450641C001D9042ECD328
:1031300070BD70B5034614460022002015E011F85A
:1031400022501D5431F82250C5F30726451C5E5508
:1031500051F82250C5F30746851C5E5551F82250A0
:103160002D0EC61C9D55521C001DA042E7D370BDFC
:103170002DE9FC4104460E46002500272088C0F3B7
:10318000C505382D02D2C5F1380001E0C5F178003F
:103190000746082221466846FFF7CBFF3A46084912
:1031A000204600F00BFC08226946204600F006FC91
:1031B000102204F108013046FFF7BBFFBDE8FC8197
:1031C0005003002000210160416005498160054AEB
:1031D000C260CA430261034AD243426170470000A1
:1031E0000123456789ABCDEF2DE9F043C0B08046A0
:1031F0008946D8F80040D8F80450D8F80860D8F8C4
:103200000C70402249466846FFF77AFF05EA06003F
:1032100027EA0501084300990844FE49084404448C
:10322000E00140EA54642C4404EA050026EA040163
:10323000084301990844F84908440744380340EA20
:103240001757274407EA040025EA070108430299B3
:103250000844F24908440644700440EAD6363E4425
:1032600006EA070024EA0601084303990844EC49EA
:1032700008440544A80540EA9525354405EA0600BA
:1032800027EA0501084304990844E6490844044430
:10329000E00140EA54642C4404EA050026EA0401F3
:1032A000084305990844E04908440744380340EAC4
:1032B0001757274407EA040025EA0701084306993F
:1032C0000844DA4908440644700440EAD6363E44CD
:1032D00006EA070024EA0601084307990844D4498E
:1032E00008440544A80540EA9525354405EA06004A
:1032F00027EA0501084308990844CE4908440444D4
:10330000E00140EA54642C4404EA050026EA040182
:10331000084309990844C84908440744380340EA67
:103320001757274407EA040025EA070108430A99CA
:103330000844A0F524404F380644700440EAD636CD
:103340003E4406EA070024EA060108430B990844B4
:10335000BA4908440544A80540EA9525354405EADC
:10336000060027EA050108430C990844B4490844BB
:103370000444E00140EA54642C4404EA050026EACF
:10338000040108430D990844AE4908440744380332
:1033900040EA1757274407EA040025EA07010843D3
:1033A0000E990844A84908440644700440EAD636F9
:1033B0003E4406EA070024EA060108430F99084440
:1033C000A24908440544A80540EA9525354405EA84
:1033D000070026EA07010843019908449C4908446C
:1033E0000444600140EAD4642C4404EA060025EA5F
:1033F00006010843069908449649084407447802A0
:1034000040EAD757274407EA050024EA05010843A4
:103410000B990844904908440644B00340EA964694
:103420003E4406EA040027EA0401084300990844E0
:103430008A4908440544280540EA1535354405EA1B
:10344000070026EA0701084305990844844908440F
:103450000444600140EAD4642C4404EA060025EAEE
:10346000060108430A9908447E4908440744780243
:1034700040EAD757274407EA050024EA0501084334
:103480000F990844784908440644B00340EA964638
:103490003E4406EA040027EA04010843049908446C
:1034A000724908440544280540EA1535354405EAC3
:1034B000070026EA07010843099908446C490844B3
:1034C0000444600140EAD4642C4404EA060025EA7E
:1034D000060108430E9908446649084407447802E7
:1034E00040EAD757274407EA050024EA05010843C4
:1034F00003990844604908440644B00340EA9646EC
:103500003E4406EA040027EA0401084308990844F7
:103510005A4908440544280540EA1535354405EA6A
:10352000070026EA070108430D9908445449084456
:103530000444600140EAD4642C4404EA060025EA0D
:1035400006010843029908444E490844074478029A
:1035500040EAD757274407EA050024EA0501084353
:1035600007990844484908440644B00340EA96468F
:103570003E4406EA040027EA040108430C99084483
:10358000424908440544280540EA1535354485EA92
:1035900006007840059908443D4908440444200148
:1035A00040EA14742C4484EA0500704008990844E9
:1035B000384908440744F80240EA5757274487EA45
:1035C000040068400B990844334908440644300419
:1035D00040EA16463E4486EA070060400E990844D9
:1035E0002E4908440544E80540EA5525354485EA56
:1035F0000600784001990844294908440444200100
:1036000040EA14742C4484EA05007040049908448C
:10361000244949E078A46AD756B7C7E8DB7020246C
:10362000EECEBDC1AF0F7CF52AC68747134630A842
:10363000019546FDD8988069AFF7448BBED75C8969
:103640002211906B937198FD8E4379A62108B4499D
:1036500062251EF640B340C0515A5E26AAC7B6E99D
:103660005D102FD65314440281E6A1D8C8FBD3E7DE
:10367000E6CDE121D60737C3870DD5F4ED145A45C1
:1036800005E9E3A9F8A3EFFCD9026F678A4C2A8DFC
:103690004239FAFF81F6718722619D6D0C38E5FD94
:1036A00044EABEA4A9CFDE4B08440744F80240EA2E
:1036B0005757274487EA0400684007990844A549FA
:1036C00008440644300440EA16463E4486EA0700B1
:1036D00060400A990844A04908440544E80540EAC6
:1036E0005525354485EA060078400D9908449B49E4
:1036F00008440444200140EA14742C4484EA050080
:10370000704000990844964908440744F80240EA8A
:103710005757274487EA04006840039908449149B1
:1037200008440644300440EA16463E4486EA070050
:103730006040069908448C4908440544E80540EA7D
:103740005525354485EA060078400999084487499B
:1037500008440444200140EA14742C4484EA05001F
:1037600070400C990844824908440744F80240EA32
:103770005757274487EA040068400F9908447D4959
:1037800008440644300440EA16463E4486EA0700F0
:10379000604002990844784908440544E80540EA35
:1037A0005525354465EA070070400099084473497F
:1037B00008440444A00140EA94642C4464EA0600EE
:1037C0006840079908446E4908440744B80240EA33
:1037D0009757274467EA050060400E9908446949F5
:1037E00008440644F00340EA56463E4466EA0400B4
:1037F000784005990844644908440544680540EA4E
:10380000D525354465EA070070400C9908445F49A6
:1038100008440444A00140EA94642C4464EA06008D
:103820006840039908445A4908440744B80240EAEA
:103830009757274467EA050060400A9908445549AC
:1038400008440644F00340EA56463E4466EA040053
:10385000784001990844504908440544680540EA05
:10386000D525354465EA07007040089908444B495E
:1038700008440444A00140EA94642C4464EA06002D
:1038800068400F990844464908440744B80240EA92
:103890009757274467EA0500604006990844414964
:1038A00008440644F00340EA56463E4466EA0400F3
:1038B00078400D9908443C4908440544680540EAAD
:1038C000D525354465EA0700704004990844374916
:1038D00008440444A00140EA94642C4464EA0600CD
:1038E00068400B990844324908440744B80240EA4A
:1038F0009757274467EA05006040029908442D491C
:1039000008440644F00340EA56463E4466EA040092
:10391000784009990844284908440544680540EA64
:10392000D5253544D8F800002044C8F80000D8F860
:1039300004002844C8F80400D8F808003044C8F847
:103940000800D8F80C003844C8F80C0040B0BDE8B6
:10395000F0830000604BBBF670BCBFBEC67E9B28E8
:10396000FA27A1EA8530EFD4051D880439D0D4D9CF
:10397000E599DBE6F87CA21F6556ACC4442229F425
:1039800097FF2A43A72394AB39A093FCC3595B65E7
:1039900092CC0C8F7DF4EFFFD15D84854F7EA86FB4
:1039A000E0E62CFE144301A3A111084E827E53F7DA
:1039B00035F23ABDBBD2D72A91D386EB2DE9F04739
:1039C00004460F4615460026B046B1462088C0F38F
:1039D000C508C8F14009206800EBC50020602068D8
:1039E000B0EBC50F02D26068401C6060606800EBFD
:1039F000557060604D451CD304F1180101EB0800BF
:103A00004A463946FCF7FCFC04F1180104F10800B1
:103A1000FFF7EAFB4E4605E0B91904F10800FFF78D
:103A2000E3FB403606F14000A842F5D94FF000080C
:103A300000E00026AA1BB91904F1180303EB0800E3
:103A4000FCF7DEFCBDE8F08700BFFEE700BFFEE745
:103A500010B5002807DA0A07140E054A00F00F0314
:103A60001B1FD45403E00A07130E024A135410BD5F
:103A700018ED00E000E400E070B586B005460C46A5
:103A8000002601200590042005AB024640F6FF7198
:103A90000090284622F094FE02208DF805000020B8
:103AA0001FF090FB0290A0B21FF099FBADF806004A
:103AB000102201A9034800681EF0C0FF06463046E8
:103AC00006B070BDF805002030B599B00446002559
:103AD00064216846FCF7BBFC08A12046FCF7CEFC3D
:103AE00005464DB909A30CA269462046FEF760FAC7
:103AF0004FF0FF3019B030BD0020FBE74854545060
:103B00002F312E3120323030204F4B003C2F656E4C
:103B1000763A546578743E003C656E763A54657822
:103B20007420786D6C3A6C616E673D22656E223E42
:103B3000000000002DE9FC5F82460F469046994642
:103B40004FF0000B00241E4D3B4601221DA15046A4
:103B5000CDE9008926F0B6FC4FF47A612846FCF7DF
:103B600076FCC8203CF0E0F9002340F69F7229461D
:103B7000504621F085FE0646002E14DD34440DE04B
:103B800040F69F70021B29190823504621F078FE49
:103B90000646002E01DD344400E003E040F69F704D
:103BA0008442EDDB00BF002028552846FEF72CF9A3
:103BB00083462946002024F02FFB5846BDE8FC9F91
:103BC000443800104765744F534473002DE9F043A7
:103BD00099B007460E4600240025102014901821A5
:103BE0000EA8FCF734FC00200D900B900C902021C7
:103BF00003A8FCF72CFC0020029080464FF47A6169
:103C00004048FCF724FC3F4C14A815A900234FF4AE
:103C10007A62CDE900102146384621F0ADFF054615
:103C2000002D69DD0020605516A816F0A1FB814625
:103C300011A810A90FAB0EAACDE9001032A1484679
:103C4000FCF7C0FC0E98C0B28DF834000F98C0B2DB
:103C50008DF835001098C0B28DF836001198C0B2BA
:103C60008DF8370002AB03AA0BA92046009626F078
:103C70000BF80DA826F00AFC00F0FF08B8F1000FC1
:103C80003CD124484078AB2110FB01F12148801C35
:103C900008440D99C0F801101E484078AB2110FB74
:103CA00001F11C48801C08440B9940F8051FBDF821
:103CB0003010818017494978AB2211FB02F2154977
:103CC000891C114401F10B0003AA13A101F0F6F9BC
:103CD0009DF808100F484078AB2210FB02F20D4807
:103CE000801C8154801E40780A2807DA09484078F1
:103CF000401C0849487001E04FF0FF35284619B0D4
:103D0000BDE8F083F021001025642E25642E256483
:103D10002E25640090310010257300002DE9F84332
:103D200006460C4615460027B8460748FCF7CEFB6A
:103D300080462346424604493046009500F006F886
:103D400007463846BDE8F883382805082DE9F043D2
:103D500087B005460E4617461C46DDF838904FF0F2
:103D600000080020039004900590069002208DF832
:103D70000D001FFA89F01FF032FAADF80E00204650
:103D800016F000FF0490102003A900233A46CDE965
:103D900000103146284622F075FC8046404607B0A8
:103DA000BDE8F0832DE9F04106460025894890F8EA
:103DB0002B0010B10020BDE8F081874890F8B206D2
:103DC00030B1012835D002287ED003287DD1B7E05C
:103DD00082A001F049F949F29C013046FFF74CFE00
:103DE00005462DBB00241CE07A4890F82B0000B15A
:103DF00019E049F29C027FA13046FEF7B3F9642036
:103E00003CF092F8002708E000213046FFF7DEFE84
:103E10000A203CF089F8781CC7B20A2FF4DB601C3A
:103E2000C4B2032CE0DB00BF01206B4981F8B2066D
:103E3000CDE074A001F018F9002448E0654890F83E
:103E40002B0000B145E0744830F814103046FFF7FD
:103E500013FE0546002D35D1002730E05D4890F86F
:103E60002B0000B12DE06C4830F8140041F2BA315B
:103E7000884207D1684830F8142068A13046FDF721
:103E8000EDFD06E0644830F8142068A13046FDF7E7
:103E9000E5FD64203CF048F84FF000080AE00121FD
:103EA0003046FFF793FE0A203CF03EF808F101008F
:103EB00000F0FF08B8F10A0FF1DB781CC7B2032F3E
:103EC000CCDB00BF601C01E009E06AE0C4B2042C56
:103ED000B4DB00BF0220404981F8B20677E057A06A
:103EE00001F0C2F840F676613046FFF7C5FD0546A1
:103EF0000DBB00241CE0374890F82B0000B119E0FE
:103F000040F6766245A13046FFF708FF64203CF09A
:103F10000BF8002708E002213046FFF757FE0A2081
:103F20003CF002F8781CC7B20A2FF4DB601CC4B264
:103F3000032CE0DB00BF0320274981F8B20646E0EE
:103F400042A001F091F840F676613046FFF794FD0B
:103F500005460DBB00241CE01E4890F82B0000B164
:103F600019E040F6766223A13046FFF7D7FE6420C1
:103F70003BF0DAFF002708E003213046FFF726FE7A
:103F80000A203BF0D1FF781CC7B20A2FF4DB601C7B
:103F9000C4B2032CE0DB00BF04200F4981F8B20655
:103FA00015E0002E02DB30461EF0B0FD0A48007816
:103FB00020F00100084908700846007840F08000B1
:103FC00008700846417826A001F04EF800BF00BFF7
:103FD0000020F0E6C04204209031001048494B56C2
:103FE0004953494F4E5F505F73746172742E2E2E89
:103FF0000A0000003233392E3235352E3235352E57
:104000003235300044414855415F505F73746172EE
:10401000742E2E2E0A000000EE0500203235352EBB
:104020003235352E3235352E323535003233392E94
:104030003235352E3235352E32353100554E575FFB
:10404000505F73746172742E2E2E0A004F4E5649C3
:10405000465F505F73746172742E2E2E0A0000004A
:104060006970635F6E756D2E2E2E25642E2E0A00EC
:1040700010B540F603402BF0F5FA4FF480630122AF
:10408000114605480EF0C5FD4FF480630222002161
:1040900001480EF0EEFD10BD000C024010B50446C4
:1040A000FFF7E6FF204605F0F1FD10BD10B5044610
:1040B0003BF0B0FA00213B483BF084FC002139483A
:1040C0003BF0A1FC2079082804D1002135483BF0C1
:1040D000A2FC07E02079092804D14FF4805131482F
:1040E0003BF099FC94ED020AF0EE000AB4EE600A8F
:1040F000F1EE10FA05D14FF400512A483BF07BFC59
:104100002AE094ED020AF7EE000AB4EE600AF1EE3E
:1041100010FA04D1002123483BF06DFC1CE094ED23
:10412000020AF6EE000AB4EE600AF1EE10FA05D1CA
:104130004FF480511B483BF05EFC0DE094ED020A09
:10414000F7EE080AB4EE600AF1EE10FA04D14FF46B
:10415000405114483BF04FFC607920B900211148D0
:104160003BF028FC0FE06079012805D14FF4C061D5
:104170000C483BF01FFC06E06079022803D14102A5
:1041800008483BF017FC074821683BF0C7FA0421B8
:1041900004483BF017FC082102483BF034FC3BF09C
:1041A00065FA10BD0048004010B54FF480702BF048
:1041B000C5FD4FF400300EF0CDF8002211464FF44B
:1041C00000300EF0CDF800220F21292025F046FC0A
:1041D00001202BF023FD4FF0004011490860002022
:1041E000486020200872012000F047F80C4948720E
:1041F000002000F042F80A498872002000F03DF8E3
:104200000749C8720020C86001202BF0D5FC4FF48C
:1042100080502BF035FE01202BF040FD10BD00003A
:104220005C9D002010B54FF480702BF08FFD50B1D5
:1042300005A000F019FF4FF480702BF07FFD4FF4C4
:1042400000300EF087F810BD72746320616C6172EB
:104250006D20737461727420737563636573730A80
:1042600000000000014600BF080900EB800042008A
:1042700001F00F001044C0B270470146002204E074
:10428000501CC2B2A1F10A00C1B20A29F8DA100723
:1042900041EA1060704710B586B0044601A82BF0C3
:1042A0001BFD9DF80800FFF7DDFF60719DF8090018
:1042B000FFF7D8FFA0719DF80A00FFF7D3FFE07168
:1042C0009DF80400FFF7CEFF00F5FA6020809DF80E
:1042D0000500FFF7C7FFA0709DF80600FFF7C2FFBB
:1042E000E0709DF80700FFF7BDFF207106B010BD1C
:1042F00013B563202D49088140F23F1048819DF895
:1043000003209DF80210BDF800000EF003FC8DF8AC
:104310000400BDF80010A1F5FA61C8B2FFF7ADFFC7
:10432000224908709DF80400FFF7A7FF1F49C870D5
:104330009DF80200FFF7A1FF1C4948709DF803009B
:10434000FFF79BFF19498870002008619DF8050060
:104350000C2803DD4FF48000C86002E00020134900
:10436000C8609DF80500FFF788FF104908719DF8A7
:104370000600FFF782FF0D4948719DF80700FFF71F
:104380007CFF0A49887108462BF0EAFC20B908A096
:1043900000F06AFE00201CBD10A000F065FE43F294
:1043A0003220194908600120F5E70000489D0020EF
:1043B0000A0D2A2A205254432074696D6520636FC8
:1043C0006E66696775726174696F6E206661696C8B
:1043D000656421202A2A0A0D000000000A0D2A2AFD
:1043E000205254432074696D6520636F6E6669675F
:1043F00075726174696F6E20737563636573732181
:10440000202A2A0A0D0000005028004013B59DF80C
:1044100003209DF80210BDF800000EF07BFB8DF824
:10442000040041F21C002BF01DF928F08BFADDE9A5
:104430000001FFF75DFF18B902A000F015FE1CBDDA
:1044400000BFFCE70A0D2A2A205254432074696DEC
:104450006520636F6E66696775726174696F6E203F
:104460006661696C656421202A2A0A0D000000003B
:1044700070B505460C4634B90648028806A12846A0
:1044800000F01CFE04E0054A05A1284600F016FED7
:1044900070BD00007006002025640000D454042084
:1044A000257300002DE9F04180460D4617461E4653
:1044B00000242A46394645A0FDF72BFC804608F12A
:1044C000010000287ED032463946284612F070FBA3
:1044D000044604B977E032463946284612F0E6FB36
:1044E000044604B96FE0304612F03CFC044604B9BF
:1044F00069E032463946284612F0ACFD044604B95C
:1045000061E032463946284612F0DAFF044604B923
:1045100059E032463946284612F044FD044604B9B3
:1045200051E032463946284612F0B4FC044604B93C
:1045300049E032463946284612F02AFC044604B9BE
:1045400041E032463946284612F062FC044604B97E
:1045500039E032463946284612F0DCFC044604B9FC
:1045600031E032463946284612F0BCFD044604B913
:1045700029E032463946284612F012FF044604B9B3
:1045800021E032463946284612F052FF044604B96B
:1045900019E032463946284613F0E4F8044604B9D7
:1045A00011E032463946284612F0B8FF04460CB9ED
:1045B00009E007E0074A0849304612F0DBFD0446EF
:1045C00004B900E000BF05A0BDE8F08162746E741C
:1045D00079706500D4540420700600202F73657430
:1045E00074696E672E7368746D6C000070B5044654
:1045F0000D4616460EB9002070BD04B10DB901205C
:10460000FAE7206E10B103206066F5E7606E08B12E
:10461000606EF1E71CE02878B4F91C2091B2491CC7
:1046200009B2A18304F11E018854606908306061F9
:10463000606930B9A069401CA061A06908B9012077
:104640006066A08B402802D1204600F077F86D1CF0
:10465000301EA6F1010602D0606E0028DBD00020DB
:10466000CAE710B50446B4F91C0037282BDD8021B9
:10467000B4F91C2090B2401C00B2A08304F11E00CB
:10468000815409E00021B4F91C2090B2401C00B212
:10469000A08304F11E008154B4F91C004028F1DB12
:1046A000204600F04BF809E00021B4F91C2090B23C
:1046B000401C00B2A08304F11E008154B4F91C0018
:1046C0003828F1DB18E08021B4F91C2090B2401C9E
:1046D00000B2A08304F11E00815409E00021B4F966
:1046E0001C2090B2401C00B2A08304F11E00815433
:1046F000B4F91C003828F1DBA069010E84F85610CB
:10470000A069010C84F85710208B010A84F8581016
:10471000217E84F859106069010E84F85A1060698E
:10472000010C84F85B10A08A010A84F85C10217DDA
:1047300084F85D10204600F001F810BD2DE9F04727
:10474000D4B00146DFF838A2DAE900C8DAE9029A03
:10475000CDF840C151AAA2E80007002032E001F1E3
:104760001E0C1CF820C04FEA0C6C4DF820C05DF800
:1047700020804FF0010C0CEB800901F11E0C1CF89D
:1047800009C048EA0C4C4DF820C05DF820804FF07D
:10479000020C0CEB800901F11E0C1CF809C048EA60
:1047A0000C2C4DF820C05DF820C04FF0030808EB3A
:1047B000800901F11E0818F809804CEA080C4DF830
:1047C00020C0401C1028CADB102032E0A0F1030CEE
:1047D0005DF82CC0A0F108085DF828808CEA080C70
:1047E000A0F10E085DF828808CEA080CA0F11008F2
:1047F0005DF828808CEA080C4FEA4C08A0F1030C05
:104800005DF82CC0A0F108095DF829908CEA090C2C
:10481000A0F10E095DF829908CEA090CA0F11009AD
:104820005DF829908CEA090C48EADC7C4DF820C040
:10483000401C5028CADB0B684A688C68CD680E693A
:1048400000201BE04FEA431C4CEAD36902EA040C47
:1048500025EA02084CEA080CCC44B4445DF82080F8
:10486000C444DDF840810CEB08072E4625464FEA8C
:10487000827C4CEA92041A463B46401C1428E1DB39
:10488000142019E04FEA431C4CEAD36882EA040C76
:104890008CEA050CC444B4445DF82080C444DDF8BF
:1048A00044810CEB08072E4625464FEA827C4CEAF1
:1048B00092041A463B46401C2828E3DB28201FE0D0
:1048C0004FEA431C4CEAD36802EA040C02EA0509E9
:1048D0004CEA090C04EA05094CEA090CC444B44446
:1048E0005DF82080C444DDF848810CEB08072E46B3
:1048F00025464FEA827C4CEA92041A463B46401C0D
:104900003C28DDDB3C2019E04FEA431C4CEAD3682D
:1049100082EA040C8CEA050CC444B4445DF820809F
:10492000C444DDF84C810CEB08072E4625464FEABF
:10493000827C4CEA92041A463B46401C5028E3DB3A
:10494000D1F800C09C44C1F800C0D1F804C0944420
:10495000C1F804C0D1F808C0A444C1F808C0D1F817
:104960000CC0AC44C1F80CC0D1F810C0B444C1F8BC
:1049700010C04FF0000CA1F81CC054B0BDE8F08787
:10498000B0250508014609B901207047002048619B
:104990008861888308480860084848600648C04322
:1049A00088600648C043C860054808610020086662
:1049B000486600BFE9E700000123456789ABCDEFFA
:1049C000F0E1D2C370B504460E4604B10EB9012021
:1049D00070BD606E08B1606EFAE7206E80B9204647
:1049E000FFF73FFE002504E0002104F11E004155C1
:1049F0006D1C402DF8DB00206061A0610120206665
:104A000000250AE0A81054F8200005F00301C1F1C8
:104A10000301C900C84070556D1C142DF2DB002045
:104A2000D6E770B504460D461646452C02D0462CF6
:104A30000AD104E000212846FFF71AFD05E0012114
:104A40002846FFF715FD00E000BF00BF2846FBF732
:104A50003DFD80B270BD10B508F076FC3CF014FE50
:104A6000012801D03BF0B2FE10BD00001CB55D482E
:104A7000006840F470005B4908605B48006840F0E3
:104A800001005949086000BF5748006800F0020063
:104A90000028F9D054480830006800F00C000828BD
:104AA0006ED100BF0020019002E00198401C0190EF
:104AB00001985028F9D34C480830006800900098BD
:104AC00020F0F0000090009840F0800000904649EF
:104AD0000831009808600020019002E00198401C15
:104AE000019001985028F9D33F48083000680090A1
:104AF000009820F0F0000090009840F090000090A6
:104B000039490831009808600020019002E00198BE
:104B1000401C019001985028F9D3334808300068B0
:104B20000090009820F0F0000090009840F0A00065
:104B300000902D490831009808600020019002E0A3
:104B40000198401C019001985028F9D3264808305C
:104B500000680090009820F0F0000090009840F06D
:104B6000B0000090204908310098086000200190B2
:104B700002E00198401C019001985028F9D300BF31
:104B800019480830006820F0030017490831086010
:104B9000C82001F035FA1448006814490840124949
:104BA00008600846006820F48020086000200E4954
:104BB0000831086000BF0C48083000680020002859
:104BC000F9D10B480849091D0860002006490C313D
:104BD000086030F061FE00214FF0006024F0CCFF4F
:104BE0001CBD000088ED00E000380240FFFFF6FE2B
:104BF0001030002410B50121880738F0F4F940B1D5
:104C00000121880738F0ECF902480068401C01498E
:104C1000086010BD9C02002010B501210B4838F03F
:104C2000E2F988B10121094838F0DAF920F054FAA4
:104C300020F0FAFD02F06CF916F044F809F020F8C3
:104C400004F08EF903F03AFF10BD000000040040AC
:104C500010B50121044838F0C6F918B10121024805
:104C600038F0BEF910BD00000008004010B5012169
:104C7000044838F0B8F918B10121024838F0B0F909
:104C800010BD0000000C004010B50121064838F0AE
:104C9000AAF938B128F04CF82BF06CFB012102483E
:104CA00038F09EF910BD00000010004010B5012141
:104CB000064838F098F938B103F058FA03F016FABC
:104CC0000121024838F08CF910BD000000140040AA
:104CD00011B58DB00D9800F5E1400D900DA8FCF7D1
:104CE0006FFA04460CB90EB010BD2C22214602A862
:104CF000FBF786FB079800F26C7007900698401C43
:104D00000690079880B2ADF800000698C0B28DF802
:104D100002000598C0B28DF803000498C0B28DF867
:104D200005000398C0B28DF806000298C0B28DF855
:104D30000700DDE90001FFF769FB00BFD3E70000D2
:104D400010B5032109483AF0EEFD48B901210748A2
:104D50003AF0E9FD20B9002104483AF0E4FD20B121
:104D60000248006801483AF04DFD10BD004C00407B
:104D700010B5032109483AF0D6FD48B9012107488A
:104D80003AF0D1FD20B9002104483AF0CCFD20B121
:104D90000248006801483AF035FD10BD005000405F
:104DA00010B5032109483AF0BEFD48B90121074872
:104DB0003AF0B9FD20B9002104483AF0B4FD20B121
:104DC0000248006801483AF01DFD10BD007800401F
:104DD00010B5032109483AF0A6FD48B9012107485A
:104DE0003AF0A1FD20B9002104483AF09CFD20B121
:104DF0000248006801483AF005FD10BD007C004003
:104E000010B51A491A483AF0B8FDC8B11749184800
:104E10003AF0A6FD0521174808F044FF202205219D
:104E2000144808F0D5FF0521124809F030FAC0F502
:104E30000060114908600220104908603AF09CFBAC
:104E400003210B483AF06FFD48B9012108483AF0B8
:104E50006AFD20B9002106483AF065FD20B10448FA
:104E6000006803483AF0CEFC10BD000004200B227D
:104E70000010014000640240AC020020A8020020A3
:104E800008B5254925483AF078FD78B30020009010
:104E9000214922483AF064FD0521214808F002FF2B
:104EA000202205211E4808F093FF05211C4809F027
:104EB000EEF9C0F500601B49086002201A4908603D
:104EC0001848008881B26A4618480EF02BFA3AF06A
:104ED00069FB00BF009838B14FF08050144908605A
:104EE000BFF34F8FBFF36F8F00BF00BF03210B488D
:104EF0003AF019FD48B9012108483AF014FD20B9EB
:104F0000002106483AF00FFD20B10448006803482C
:104F10003AF078FC08BD000004200B220044004059
:104F200000600240D0020020CC02002088E5002072
:104F300004ED00E010B51D491D483AF01EFDF8B122
:104F40001A491B483AF00CFD01211A4808F0AAFE44
:104F500020220121174808F03BFF0121154809F0E4
:104F600096F9C0F5006014490860022013490860F2
:104F70001148008881B212480AF07EF83AF060FBCE
:104F800003210B483AF0CFFC48B9012108483AF018
:104F9000CAFC20B9002106483AF0C5FC20B10448FB
:104FA000006803483AF02EFC10BD000004200B22DC
:104FB0000048004000600240C4020020C0020020FF
:104FC00088DD002010B5224922483AF0D6FC50B3C3
:104FD0001F4920483AF0C4FC01211F4808F062FE36
:104FE000202201211C4808F0F3FE01211A4809F093
:104FF0004EF9C0F5006019490860022018490860A0
:105000000121154808F04EFE20220121124808F027
:10501000DFFE4FF4006201210F4809F030F9012151
:105020000D4808F04FFE03210A483AF07CFC48B9CD
:10503000012108483AF077FC20B9002105483AF0F0
:1050400072FC20B10348006802483AF0DBFB10BD57
:1050500004200B220014014000640240B80200202A
:10506000B402002000BFFEE70FB4054B10B503A942
:10507000044A029800F036FC10BC5DF814FB0000F6
:105080008D270208180800200FB47CB50C0009AD6C
:1050900001D0611E00E00021CDE90001064B6A4607
:1050A0002946089800F01EFC002C02D0009A00212E
:1050B00011707CBC5DF814FBEB5F01080FB4084B6A
:1050C00010B504A902AA039800F00CFC044602A93A
:1050D000002000F0A3FF204610BC5DF814FB000088
:1050E0001D60010801464FF033324FF0553000EAA1
:1050F0005100091A01EA020002EA9103C11801EB0A
:10510000111000F00F3101EB112101EB114101F001
:105110003F007047004870472408002030B528B190
:10512000144C031F002021680A4605E0084630BDE4
:105130009A4203D810465268002AF9D1002800D0BC
:1051400041680BD00468A3EB0005A54204D11B689D
:105150001C440346046002E0436000E023603AB16F
:105160001C68D51AA54203D115682C441C605268EE
:105170005A6030BD1C08002010B5B94A2DED020B55
:105180002DED0C8B82B00F9921F000409FEDB6CB36
:1051900090422CDBA0F140530E9AA3F17F631A4397
:1051A0000FD0B349884202DC16D10E98A0B19DED14
:1051B0000E0B02B0BDEC0C8B02B0BDE8104000F04D
:1051C0008FBA0029C1BF9FEDAC0B02B0BDEC0C8BB8
:1051D00002B0C8BF10BD16E0012000F0B3FA02B063
:1051E000BDEC0C8B02B0BDE8104000F085BAA44ABB
:1051F0009FEDA59B9FEDA6AB90425EDAA6499FED81
:10520000A8CB814208DBB0EE4C0AF0EE6C0A02B08B
:10521000BDEC0C8B02B010BD9DED0E0B53EC102BB2
:1052200051EC100BFBF7E2FD41EC180B9E480621F8
:10523000B0EE480AF0EE680A784400F0ACF953EC9E
:10524000182B51EC100BFBF7D1FD41EC1B0B9748D1
:10525000B0EE480AF0EE680A0421784400F09BF9A9
:1052600053EC182B51EC100BFBF7C0FD53EC192B32
:10527000FBF715FD41EC100B51EC1B0B53EC102B05
:10528000FBF726FE41EC100B53EC102B9DED0E0BA3
:1052900051EC100BFBF7AAFD53EC1A2BFBF7A3FD07
:1052A0009DED0E1B53EC112BFBF79DFD53EC1C2BBE
:1052B000FBF799FD41EC100BA9E79FED7D8B9FED6E
:1052C0007EBB9DED0E0B002953EC192B51EC100BFE
:1052D00052DAFBF7E4FC53EC182BFBF787FD41ECAB
:1052E000180B77480621B0EE480AF0EE680A7844B9
:1052F00000F051F953EC182B51EC100BFBF776FD35
:1053000041EC1D0B6F48B0EE480AF0EE680A04212C
:10531000784400F040F953EC182B51EC100BFBF7DC
:1053200065FD53EC192BFBF7BAFC41EC190B51EC62
:10533000180B2FF02EF841EC180B53EC192B51ECF5
:105340001D0BFBF7C5FD53EC182BFBF74FFD53EC82
:105350001A2BFBF745FD41EC100B51EC180B53ECED
:10536000102BFBF79CFC53EC1B2BFBF73FFD53EC86
:105370001C2BFBF738FD6DE0FBF735FD53EC182BCC
:10538000FBF734FD41EC180B2FF003F841EC1A0B3E
:1053900000208DED00AB00909DED000B51EC1A0B41
:1053A00053EC102BFBF77BFC9DED000B41EC1C0B31
:1053B00053EC102B51EC100BFBF718FD53EC182B92
:1053C000FBF711FD53EC1C2BFBF782FD41EC1C0B92
:1053D0003D48B0EE480AF0EE680A0621784400F035
:1053E000DAF853EC182B51EC100BFBF7FFFC41ECF7
:1053F0001D0B3648B0EE480AF0EE680A04217844E6
:1054000000F0C9F853EC182B51EC100BFBF7EEFC35
:1054100053EC192BFBF743FC41EC100B51EC1D0B2B
:1054200053EC102BFBF754FD53EC1A2BFBF7DEFC6F
:1054300053EC1C2BFBF733FC41EC100B53EC102B03
:105440009DED000B51EC100BFBF729FC53EC1B2BD3
:10545000FBF7CCFC41EC100BD9E60000000000008B
:105460000000F03F00000000182D4454FB210940CB
:105470000000F07F000000000000000000000000BD
:105480000000E03F00000000000000000000F03FCE
:10549000075C143326A6913C0000603C000000002D
:1054A000182D4454FB21F93F34780400427804005D
:1054B000000000000000E03F00000000000000408D
:1054C0007E7704008C770400907604009E760400BA
:1054D00030B583B0044600F01FF99FED090B054677
:1054E0008DED000B002221466846FBF762FF28463F
:1054F00000F028F99DED000B03B030BD0000000066
:1055000000000000000000002DED020B019820F0CB
:10551000004001909DED000B02B0704700B52DEDED
:10552000048BB0EE409AF0EE609A83B051EC190B08
:10553000FCF706F841EC180B18EE100A18EE901A5A
:105540008DED008B002818BF0120084320F000409B
:10555000C0F17F6000F1E040C00F14D019EE101AC6
:1055600019EE900A8DED009B002918BF0121084318
:1055700020F00040C0F17F6000F1E040C00F04BFA8
:10558000012000F0DFF8B0EE480A03B0F0EE680A40
:10559000BDEC048B00BD70B504462DED028B4D1E95
:1055A00000EBC500B0EE408AF0EE608A90ED000B93
:1055B00035F0060017D053EC182B51EC100BFBF70D
:1055C00015FC41EC100B6D1E04EBC50090ED001BAB
:1055D00051EC100B53EC112BFBF761FB41EC100B62
:1055E00035F00600E7D1022D36D0042D1CD0062D53
:1055F0001CBFBDEC028B70BD53EC182B51EC100B93
:10560000FBF7F4FB94ED0A1B53EC112BFBF747FB64
:1056100053EC182BFBF7EAFB94ED081B53EC112B12
:10562000FBF73DFB41EC100B53EC182B51EC100B2E
:10563000FBF7DCFB94ED061B53EC112BFBF72FFB68
:1056400053EC182BFBF7D2FB94ED040B53EC102B0F
:10565000FBF725FB41EC100B53EC182B51EC100B16
:10566000FBF7C4FB94ED021B53EC112BFBF717FB6C
:1056700053EC182BFBF7BAFB94ED001B53EC112BEA
:10568000FBF70DFBBDEC028B41EC100B70BD000075
:105690002DE9F04782460F4C10480D4E0E4F001B6F
:1056A0004FF0000820F007054FF0010900221146D5
:1056B000504613F00BFF002802D1306810B10020D3
:1056C000BDE8F0873C60C4E90058C6F80090EDE7FB
:1056D0002008002054EC05201C08002050F0052074
:1056E00010B553EC102B51EC100BFBF7D8FA41EC32
:1056F000100B10BD000000009FED050B10B553EC22
:10570000102B51EC100BFBF7E3FB41EC100B10BD21
:105710000000000000000000014800687047000021
:105720002408002002E008C8121F08C1002AFAD18C
:1057300070477047002001E001C1121F002AFBD111
:1057400070470000014908607047000024080020ED
:105750002DE9FF5F82B00021DDE90430020DDDF8A4
:1057600040B0034318D044F61050A2F2FF32424337
:105770001514119801281FD0A5EB0B00401C5FEAFF
:10578000000A4FF000064E4FDFF83891B046504601
:1057900015D5CAF1000413E0119801244AA3012889
:1057A00001D16FEA0B010298119AC0E90031C0E9FA
:1057B000024206B0BDE8F09FCBF10000DFE70446EF
:1057C0000021404A491842EB0450CDE9001012E094
:1057D000E00707D032463B4640464946FBF706FB0A
:1057E0008046894632463B4610461946FBF7FEFA8C
:1057F00006460F466410002CEAD1DDE90401DDE91C
:105800000023BAF1000F06DAFBF7F0FA42464B46E6
:10581000FBF7ECFA05E0FBF75BFB42464B46FBF778
:1058200057FB04460E460022284BFBF74DFC03D8DD
:105830004FF0FF30014607E00022254B204631465D
:10584000FBF72DFAFBF7D9FE102409E0002C0ADB48
:105850000A220023FAF728FD039B30321A55641EF2
:1058600050EA0102F2D1641C039AC4F111031444FA
:10587000119A012A03D0012208430DD10AE00843FE
:1058800004D000204FF0110B119072E7A3EB0B0531
:105890006D1E0DE05B4504DD4FF0000205F10105D2
:1058A00004E003DA4FF00002A5F10105002AECD074
:1058B00002981199C0E90231C0E9004579E700007A
:1058C000000014400000F03F300000000000F043F2
:1058D0000000E03F30380A2801D201207047002044
:1058E000704700002DE9FF4F95B09A46884606465E
:1058F0000025EEE1252877D100242746F94A012129
:10590000039400E0044316F8013F203B01FA03F042
:105910001042F7D130782A2811D06FF02F03307859
:10592000A0F13002092A16D8039A44F0020402EBCF
:10593000820203EB42021044761C0390EFE758F812
:10594000042B0392002A03DA504244F400540390DB
:1059500044F00204761C30782E2816D116F8010F78
:1059600044F004042A280DD06FF02F023078A0F103
:105970003003092B09D807EB870302EB4303C71851
:10598000761CF3E758F8047B761C30786C280FD02F
:1059900006DC4C2817D068280DD06A2814D104E002
:1059A000742810D07A280FD10DE044F400140AE0D6
:1059B00044F4801401E044F440147278824202D12D
:1059C00004F58014761C761C307866280BD013DC26
:1059D000582877D009DC002875D04528F6D046280D
:1059E000F4D047281AD193E118E0632835D0642811
:1059F00079D0652812D18BE1702873D008DC672834
:105A0000F1D069286FD06E280DD06F2806D1ACE098
:105A100073282CD0752874D0782853D05246179903
:105A200090476D1C54E1C4F30250022809D00328AA
:105A30000DD0D8F8001004280DD00D6008F104082E
:105A400046E1D8F80010EA17C1E90052F6E7D8F8A5
:105A500000100D80F2E70D70F0E718F8041B8DF8C8
:105A6000001000208DF80100EB46012003E058F8FB
:105A700004BB4FF0FF3061074FF0000102D40DE08E
:105A800009F101018946B9420FDA8145F8DB1BF8BB
:105A900009100029F4D108E009F101018946814289
:105AA000FADB1BF809100029F6D103985346A0EB46
:105AB000090721463846179A00F080FA284400EB7F
:105AC000090507E044E008E10DE01BF8010B524630
:105AD00017999047B9F10109F7D253462146384644
