:020000040800F2
:10000000E0B50020C50100081F050008170500081D
:100010001B050008FD020008990900080000000007
:10002000000000000000000000000000550700086C
:1000300095030008000000004D050008590700085E
:10004000DF010008DF010008DF010008DF01000810
:10005000DF010008DF010008DF010008DF01000800
:10006000DF010008DF010008DF010008DF010008F0
:10007000DF010008DF010008DF010008DF010008E0
:10008000DF010008DF010008DF010008DF010008D0
:10009000DF010008DF010008DF010008DF010008C0
:1000A000DF010008DF010008DF010008DF010008B0
:1000B000E90800080D09000829090008DF01000807
:1000C000DF010008DF010008DF010008DF01000890
:1000D000DF010008DF010008DF010008DF01000880
:1000E000DF010008DF010008DF010008DF01000870
:1000F000DF010008DF010008DF010008DF01000860
:10010000DF010008DF01000845090008DF010008E1
:10011000DF010008DF010008610900087D0900080F
:10012000DF010008DF010008010300084D0300089B
:10013000DF010008DF010008DF010008DF0100081F
:10014000DF010008DF010008DF010008DF0100080F
:10015000DF010008DF010008DF010008DF010008FF
:10016000DF010008DF010008DF010008DF010008EF
:10017000DF010008DF010008DF01000800000000C7
:10018000DF010008DF010008DF010008DF010008CF
:10019000DF010008DF010008DF01000800000000A7
:1001A000DF010008DF010008DF010008DFF810D0E0
:1001B00000F092F80048004795210008AFF3008056
:1001C000E0B500200648804706480047FEE7FEE706
:1001D000FEE7FEE7FEE7FEE7FEE7FEE7FEE7FEE7F7
:1001E00061070008AD0100082DE9F05F0546002019
:1001F00092469B4688460646814640241BE0284698
:1002000041464746224600F057F853465A46C01A20
:10021000914110D311461846224600F03EF82D1A9F
:1002200067EB01084F4622460120002100F035F817
:1002300017EB00094E41201EA4F10104DFDC484603
:1002400031462A464346BDE8F09F40EA01039B073A
:1002500003D009E008C9121F08C0042AFAD203E03B
:1002600011F8013B00F8013B521EF9D2704730B53E
:1002700004460020034600E05B1C934203D2E05C8E
:10028000CD5C401BF8D030BD034611F8012B00F8BF
:10029000012B002AF9D118467047202A04DB203AA6
:1002A00000FA02F1002070479140C2F1200320FAC9
:1002B00003F3194390407047202A04DB203A21FAC7
:1002C00002F00021704721FA02F3D040C2F120026F
:1002D0009140084319467047064C074D06E0E06818
:1002E00040F0010394E8070098471034AC42F6D37D
:1002F000FFF760FFC8380008E838000800BFFEE7D5
:1003000010B5202202210F4801F06CFB58B12022C9
:1003100002210C4801F047FB01200B490860022133
:10032000084801F09BFA08220221064801F05AFB16
:1003300038B108220221034801F035FB02200249AE
:10034000086010BD006402402400002010B5202287
:1003500003210E4801F046FB40B1202203210B4847
:1003600001F021FB0321094801F078FA082203215A
:10037000064801F037FB38B108220321034801F099
:1003800012FB02200249086010BD00000064024018
:100390002400002000BFFEE710B541F61B5002F01C
:1003A00067F9012802D119A000F0F8FA41F61950B6
:1003B00002F05EF9012802D11BA000F0EFFA41F62D
:1003C0001C5002F055F9012802D11DA000F0E6FAF8
:1003D00041F61D5002F04CF9012802D11FA000F097
:1003E000DDFA41F61E5002F043F9012802D125A0A2
:1003F00000F0D4FA41F61A5002F03AF9012802D17D
:100400002AA000F0CBFA02F097F810BD504F5252DC
:1004100053543A506F776572207265736574206625
:100420006C61670A00000000424F525253543A4236
:100430004F5220726573657420666C6167730A00A1
:1004400053575253543A536F6674776172652072F2
:100450006573657420666C61670A000046574447FF
:10046000545253543A466F727761726420776174C4
:100470006368646F6720726573657420666C61677A
:100480000A00000057574447545253543A57696E74
:10049000646F77207761746368646F672072657337
:1004A000657420666C61670A000000004550525375
:1004B000543A65787465726E616C2050494E2072B2
:1004C0006573657420666C61670A000070B5054647
:1004D0000C462246294603A000F060FA04B970BD1C
:1004E00000BFFEE757726F6E6720706172616D65C5
:1004F000746572732076616C75653A2066696C6507
:10050000202573206F6E206C696E652025640D0AAE
:1005100000000000704700BFFEE700BFFEE700BF1D
:10052000FEE7000010B5002807DA0A07140E054A96
:1005300000F00F031B1FD45403E00A07130E024AF6
:10054000135410BD18ED00E000E400E000BFFEE72A
:100550002DE9F04729480568001D0668001D076859
:10056000274800682749B0FBF1F8414626A000F073
:1005700015FA2B463246394630A000F00FFA34A067
:1005800000F00CFA002001F0E1FF0546012001F027
:10059000DDFF0746022001F0D9FF8046032001F06D
:1005A000D5FF814629462BA000F0F8F91548B5FB88
:1005B000F0F631462FA000F0F1F9394635A000F0F1
:1005C000EDF941463BA000F0E9F9494641A000F0B1
:1005D000E5F948A000F0E2F9002401F0A7FC044688
:1005E000210EC4F30723C4F307424CA000F0D6F950
:1005F00056A000F0D3F9BDE8F0870000107AFF1F85
:100600000400002040420F000D0A435055203A20BC
:10061000474433324634353056472C204C514650EF
:100620003130302C203234304D487A2C20D6F7C669
:10063000B53A2025644D487A0D0A000055494420FA
:100640003D2025303858202530385820253038585E
:100650000A0D0000535953434C4B2028CFB5CDB35E
:10066000CAB1D6D3292020203A20256420487A0D0B
:100670000A000000535953434C4B2028CFB5CDB34B
:10068000CAB1D6D3292020203A202564204D487AAB
:100690000D0A0000414842202020202848434C4BAE
:1006A00029202020202020203A20256420487A0D6F
:1006B0000A000000415042312020202850434C4B7A
:1006C00031292020202020203A20256420487A0D3E
:1006D0000A000000415042322020202850434C4B59
:1006E00032292020202020203A20256420487A0D1D
:1006F0000A0000003D3D3D3D3D3D3D3D3D3D3D3D14
:100700003D3D3D3D3D3D3D3D3D3D3D3D3D3D3D3D19
:100710003D3D3D3D3D3D3D0D0A0D0A000D0A47445E
:100720003332463478782073657269657320666960
:10073000726D776172652076657273696F6E3A20AB
:100740005625642E25642E25640000002A200D0AFB
:100750000000000000BFFEE710B501F03FF810BD3B
:100760001CB55D48006840F470005B4908605B4858
:10077000006840F001005949086000BF5748006810
:1007800000F002000028F9D054480830006800F05A
:100790000C0008286ED100BF0020019002E00198F3
:1007A000401C019001985028F9D34C48083000684B
:1007B0000090009820F0F0000090009840F0800039
:1007C000009046490831009808600020019002E03E
:1007D0000198401C019001985028F9D33F480830F7
:1007E00000680090009820F0F0000090009840F021
:1007F000900000903949083100980860002001906D
:1008000002E00198401C019001985028F9D3334828
:10081000083000680090009820F0F00000900098E8
:1008200040F0A00000902D49083100980860002099
:10083000019002E00198401C019001985028F9D3E2
:100840002648083000680090009820F0F0000090E2
:10085000009840F0B00000902049083100980860EE
:100860000020019002E00198401C0190019850285E
:10087000F9D300BF19480830006820F00300174979
:1008800008310860C82000F0D4FA14480068144900
:100890000840124908600846006820F4802008607B
:1008A00000200E490831086000BF0C48083000687D
:1008B00000200028F9D10B480849091D08600020D4
:1008C00006490C31086002F087FC00214FF00060FF
:1008D00001F026FE1CBD000088ED00E0003802405B
:1008E000FFFFF6FE1030002410B50121880702F04A
:1008F000CAFD40B10121880702F0C2FD024800682C
:10090000401C0149086010BD2800002010B50121DD
:10091000044802F0B8FD18B10121024802F0B0FD10
:1009200010BD00000004004010B50121044802F091
:10093000AAFD18B10121024802F0A2FD10BD00007D
:100940000008004010B50121044802F09CFD18B1D8
:100950000121024802F094FD10BD0000000C00408F
:1009600010B50121044802F08EFD18B101210248A2
:1009700002F086FD10BD00000010004010B50121FE
:10098000044802F080FD18B10121024802F078FD10
:1009900010BD00000014004000BFFEE70FB4054B7F
:1009A00010B503A9044A029800F018F810BC5DF8CD
:1009B00014FB0000091F00084000002002E008C8E6
:1009C000121F08C1002AFAD170477047002001E0C9
:1009D00001C1121F002AFBD1704700002DE9FF4F13
:1009E0008DB00F460546002606E025280BD0DDE930
:1009F0000F1290476D1C761C28780028F5D111B095
:100A00003046BDE8F08F0024A246A1460122E94904
:100A100000E0044315F8013F203B02FA03F00842CE
:100A2000F7D128782A2810D06FF02F022878A0F16B
:100A30003001092914D80AEB8A0102EB410144F084
:100A4000020400EB010A6D1CF0E701CF5FEA000A27
:100A500003D544F40054CAF1000A44F002046D1CAA
:100A600028782E2817D115F8010F44F004042A28FD
:100A70000ED06FF02F022878A0F1300109290AD892
:100A800009EB890102EB410100EB01096D1CF2E762
:100A900057F8049B6D1C28786C280FD006DC4C2876
:100AA00017D068280DD06A2814D104E0742810D01B
:100AB0007A280FD10DE044F400140AE044F48014C5
:100AC00001E044F440146978814202D104F58014B5
:100AD0006D1C6D1C28786E281ED00CDC632830D06D
:100AE00004DC00288BD0582811D19FE0642867D0FF
:100AF00069280CD164E073282DD004DC6F2872D0F3
:100B0000702804D194E075286ED078286DD0DDE986
:100B10000F129047761C4BE1C4F30250022806D016
:100B2000032809D0042801CF09D0066040E101CF95
:100B3000F117C0E900613BE101CF068038E10670A2
:100B400036E117F8040B8DF8000000208DF8010045
:100B5000EB46012003E057F804BB4FF0FF3061077C
:100B60004FF0000102D40DE008F10101884649452B
:100B70000FDA8045F8DB1BF808100029F4D108E0F3
:100B800008F1010188468142FADB1BF808100029B0
:100B9000F6D1DDE90F23AAEB08008146214600F0DB
:100BA00031F9304400EB080604E0DDE90F121BF8D0
:100BB000010B9047B8F10108F7D221464846F2E010
:100BC0000A21C4F302524FF0000B0891022A04D00C
:100BD00001CFC117032A09D00AE0FF1D27F007073C
:100BE000F7E8020108E02CE01EE01FE000B2C117A8
:100BF000042A01D140B2C117021E71F1000206DAC7
:100C00000023D0EB030063EB01012D2202E022055B
:100C100004D52B228DF82420012203E0E20701D025
:100C20002022F7E7904653E00A210BE0102109E06B
:100C300010214FF0000B44F004044FF00809089114
:100C400003E008214FF0000B0891C4F30252022A7E
:100C500004D001CF0021032A06D006E0FF1D27F0B3
:100C60000707F7E8020103E080B2042A00D1C0B20E
:100C70004FF0000822072BD52A78702A07D0DDF81C
:100C800020C08CF0100C5CEA0B0C05D00EE040226A
:100C90008DF82420012208E050EA010306D0302319
:100CA0008DF824308DF8252002229046089B83F091
:100CB000080353EA0B030BD150EA010201D162078A
:100CC00006D530228DF824204FF00108A9F1010942
:100CD0002A78582A04D038A20B9208AA0A920BE06C
:100CE0003AA2F9E75B46089AFFF77EFA0B9B9B5CFA
:100CF0000A9A521E0A92137050EA0102F2D10A981F
:100D0000ADEB000000F1200B600702D524F4803425
:100D100001E04FF00109D94502DDA9EB0B0000E02D
:100D2000002000EB0B0141440890AAEB010AE0030C
:100D300006D4DDE90F232146504600F063F806444F
:100D40004FF0000908E009A911F80900DDE90F12C8
:100D5000904709F10109761CC145F4DBE0030CD58D
:100D6000DDE90F232146504600F04CF8064404E02C
:100D7000DDE90F1230209047761C0899481E089034
:100D80000029F5DC08E00A980A990078491C0A91C4
:100D9000DDE90F129047761CBBF10001ABF1010BAE
:100DA000F1DC21465046DDE90F2300F019F8064436
:100DB0006D1C21E6092801003031323334353637D5
:100DC0003839616263646566000000003031323397
:100DD0003435363738394142434445460000000037
:100DE0002DE9F041044600251E461746880404D428
:100DF00005E039462020B0476D1C641EF9D5284611
:100E0000BDE8F0812DE9F041044600251E469046DC
:100E1000C80301D5302700E02027880404D505E069
:100E200041463846B0476D1C641EF9D52846BDE8DA
:100E3000F08108B50021009102E00099491C009161
:100E400000EB8001009AB2EB410FF6D308BD70B5FC
:100E500003469818B0F1016F01D9032070BD0AB99B
:100E60000020FBE7012600240BE01D780878A8424B
:100E700004D0FF2D01D00220F0E700265B1C491CA6
:100E8000641C9442F1D3012E01D10020E6E7012039
:100E9000E4E70000014600202C4A914203D2B1F160
:100EA000006F00D350E02A4A914204D2274A91426F
:100EB00001D3082048E0274A914204D2244A9142B3
:100EC00001D3102040E0244A914204D2214A9142A9
:100ED00001D3182038E0214A914204D21E4A91429F
:100EE00001D3202030E01E4A914204D21B4A914295
:100EF00001D3282028E01B4A914204D2184A91428B
:100F000001D3302020E0184A914204D2154A914280
:100F100001D3382018E0154A914204D2124A914276
:100F200001D3402010E0124A914204D20F4A91426C
:100F300001D3482008E00F4A914204D20C4A914262
:100F400001D3502000E05820704700000040000806
:100F50000080000800C0000800000108000002082E
:100F600000000408000006080000080800000A0845
:100F700000000C0800000E0810B5044600F02CF824
:100F8000204600F001F810BD10B5044641F20410EF
:100F900001F082FB0F4802F0C9FB00210D4802F06E
:100FA00068FC00210B4802F054FC0021094802F0C3
:100FB00040FC2146074802F041FB0421054802F0AD
:100FC00040FC0821034802F04CFC024802F01CFCE3
:100FD00010BD00000010014010B54FF4406001F05A
:100FE0005BFB4FF4406001F057FB4FF400720721A8
:100FF000124800F09FFF4FF4806207210F4800F075
:1010000099FF4FF40073012202210C4800F0CEFF3B
:101010004FF4007302220021084800F0EEFF4FF465
:10102000806301220221054800F0C0FF4FF4806375
:1010300002220021014800F0E0FF10BD0000024044
:101040007047000010B540F6014001F025FB40F666
:10105000014001F021FB40F6044001F01DFB4FF47C
:10106000807300220121194800F0A0FF4FF4807323
:1010700002220021154800F0C0FF4FF40073002247
:101080000121124800F092FF4FF400730222002168
:101090000E4800F0B2FF0123002219460C4800F070
:1010A00085FF012302220021094800F0A6FF4FF42A
:1010B0008071064800F06FFF4FF40071034800F0A4
:1010C0006AFF0121024800F066FF10BD00040240E3
:1010D0000010024010B540F6034001F0DDFA802117
:1010E000084800F058FF802300220121054800F045
:1010F0005DFF802302220021024800F07EFF01F004
:1011000015FE10BD000C024010B500200549087006
:1011100000F078F800F008F80321082000F0BAF891
:1011200010BD00002000002000B593B040F616402E
:1011300001F0B2FA03212F4800F0C3FB2E480A90B9
:101140002E480C904020109000200E9012904FF4EA
:101150008050119001200B9000200D9001200F90E5
:101160000AAA0321234800F069FD03221146214801
:1011700000F094FB002120480C3801F06BFF0221A5
:101180001C4800F09EFB1C4801901D480390002065
:10119000079005904FF4003009904011089001200D
:1011A0000290002004900120069001AA022111481B
:1011B00000F044FD032202210E4800F06FFB0121E4
:1011C0000D480C3801F046FF002205213B2001F0BC
:1011D00019F910220321074800F0C6FB002205215F
:1011E0003A2001F00FF910220221024800F0BCFB66
:1011F00013B000BD006402400C30014044020020E6
:101200004412002010B540F6014001F045FA40F6C6
:10121000014001F041FA40F6014001F03DFA41F28F
:101220000C1001F039FA08220521194800F082FE5D
:10123000082300220221164800F0B8FE08230222EB
:101240000021134800F0D9FE10220521104800F0BB
:1012500071FE1023002202210D4800F0A7FE10238A
:10126000022200210A4800F0C8FE20220521084879
:1012700000F060FE202300220221054800F096FEC7
:10128000202302220021024800F0B7FE10BD00001A
:101290000004024030B587B005460C46124800688D
:1012A000A84205D111480068A04201D107B030BD65
:1012B0000D4805600D480460002001904FF48270D5
:1012C00000900020029005944FF400700390069562
:1012D000002004906946064801F0D0FE044801F061
:1012E000C4FE00BFE2E70000140000201800002048
:1012F000003001402DE9FF5F04460D4691469A46B5
:1013000000200090019002900390204600F0F6F833
:101310006FF0807001F0F6F95A4884420BD05A48B9
:10132000844208D05948844205D05948844202D0AA
:101330005848844204D1032001F008F9860003E0F4
:10134000022001F003F98600642D0AD242F20F78E0
:1013500042F21070B6FBF0F0B0FBF5F0401E87B221
:1013600013E040F6B830854209D24FF0630864209C
:10137000B6FBF0F0B0FBF5F0401E87B205E04FF091
:101380000008B6FBF5F0401E87B2204601F060FF72
:10139000ADF800800020ADF80200ADF8040002971F
:1013A000ADF806008DF80C006946204602F018F8EA
:1013B0000121204602F060F84FF0000B31488442D2
:1013C00002D14FF0190B51E0B4F1804F02D14FF030
:1013D0001C0B4BE03048844202D14FF01D0B45E01E
:1013E0002E48844202D14FF01E0B3FE02C4884422D
:1013F00002D14FF0320B39E02A48844202D14FF03B
:10140000360B33E02848844202D14FF0370B2DE0F1
:101410001D48844202D14FF02C0B27E01B48844228
:1014200002D14FF0180B21E01948844202D14FF04D
:10143000190B1BE01748844202D14FF01A0B15E03C
:101440001A48844202D14FF02B0B0FE01848844217
:1014500002D14FF02C0B09E01648844202D14FF024
:101460002D0B03E08D2114A0FFF730F852464946BA
:101470004FFA8BF000F0C6FF204601F0ABFFBDE84D
:10148000FF9F0000000001400004014000400140B7
:1014900000440140004801400004004000080040B2
:1014A000000C0040001000400014004000180040F4
:1014B000001C0040002000402E2E5C2E2E5C486157
:1014C0007264776172655C7372635C6273705F747F
:1014D000696D6572732E63000648006840F0807085
:1014E000044908600448006840F0010002490860AF
:1014F00070470000FCED00E0001000E010B504466D
:101500003A48844204D14FF4885001F0C5F86BE0AA
:10151000B4F1804F04D14FF4805001F0BDF863E086
:101520003348844204D141F2010001F0B5F85BE098
:101530003048844204D141F2020001F0ADF853E09A
:101540002D48844204D141F2030001F0A5F84BE09C
:101550002A48844204D141F2040001F09DF843E09E
:101560002748844204D141F2050001F095F83BE0A0
:101570002448844204D141F2011001F08DF833E097
:101580002148844204D141F2101001F085F82BE08B
:101590001E48844204D141F2111001F07DF823E08D
:1015A0001B48844204D141F2121001F075F81BE08F
:1015B0001848844204D141F2060001F06DF813E0AE
:1015C0001548844204D141F2070001F065F80BE0B0
:1015D0001248844204D141F2080001F05DF803E0B2
:1015E000AF210FA0FEF772FF10BD00000000014008
:1015F0000004004000080040000C004000100040C3
:10160000001400400004014000400140004401403B
:101610000048014000180040001C0040002000402D
:101620002E2E5C2E2E5C48617264776172655C734D
:1016300072635C6273705F74696D6572732E6300B0
:101640000120014908707047200000200020014956
:1016500008707047200000202DE9F84F06460F461D
:1016600014463019B0F1016F02D90120BDE8F88F9E
:101670000CB90020FAE7224639463046FFF7E7FB6F
:101680008046B8F1000F01D10020EFE7012080F380
:10169000108800BF00F0FCFBD32000F083FB304635
:1016A000FFF7F8FB1FFA80F93019FFF7F3FB1FFA79
:1016B00080FA4D4608E0284600F094FB18B1ED2171
:1016C0001CA0FEF703FF08355545F4D900250BE0B3
:1016D000D7F800B03F1D5946304600F0EBFB08B983
:1016E000361D00E01DE06D1CB5EB940FF0D304F047
:1016F000030078B14FF0FF30009004F00302394648
:101700006846FEF7A2FD3046009900F0D3FB00B119
:1017100007E000BF00F04CFB002080F3108800BF02
:10172000A4E700F045FB002080F3108800BF0120F3
:101730009CE700002E2E5C2E2E5C4861726477615F
:1017400072655C7372635C6273705F6370755F6611
:101750006C6173682E63000010B51C480068B0F51A
:10176000805F00D910BD0020194908600321194885
:1017700000F074F80221174800F070F813480321B4
:101780000268144800F006FB104802210268114864
:1017900000F000FB104801F06DFC202203210D48F1
:1017A00000F001F9202202210A4800F0FCF8032190
:1017B000084800F063F80221064800F05FF800BF17
:1017C000034800680028FBD000BFCBE71C000020C6
:1017D00024000020006402400030014004480068FA
:1017E00020B103480068401E0149086070470000AE
:1017F0000800002001490860704700001000002028
:1018000010B504464FF47A7104FB01F000F002F8C1
:1018100010BD000070B5034600224FF0E026756948
:101820000D4E366803FB06F44FF0E026B16910E078
:101830004FF0E026B06988420BD0884202D20E1ADF
:10184000324402E02E1A0E4432440146A24200D332
:1018500000E0EDE700BF70BD1000002010B501EB07
:101860004102D30000F11002D25822F0010301EB33
:101870004102D40000F11002135110BD10B501EB6C
:101880004102D30000F11002D25842F0010301EBF3
:101890004102D40000F11002135110BD30B51346BF
:1018A00001EB4104E50000F11004625922F060628E
:1018B00042EA436201EB4104E50000F11004625189
:1018C00030BD10B501EB4102D30000F11002D25837
:1018D00022F0010301EB4102D40000F11002135188
:1018E000002301EB4102D40000F11002135101EB7F
:1018F0004102D40000F11402135101EB4102D40063
:1019000000F11802135101EB4102D40000F11C0256
:10191000135101EB4102D40000F1200213512123A5
:1019200001EB4102D40000F12402135104290CDA26
:1019300001EB41025300C1F3400203EB82033D225D
:101940009A4083681A4382600DE00A1FD1B201EB0E
:1019500041025300C1F3400203EB82033D229A404F
:10196000C3681A43C26010BD30B5802A0DD001EBA8
:101970004103DC0000F110031B59134301EB410448
:10198000E50000F1100463510CE001EB4103DC00C1
:1019900000F124031B59134301EB4104E50000F15E
:1019A0002404635130BD10B504290CDA01EB410366
:1019B0005C00C1F3400304EB830302FA03F3846881
:1019C000234383600DE00B1FD9B201EB41035C00A0
:1019D000C1F3400304EB830302FA03F3C468234317
:1019E000C36010BDF0B503460020002500260C465C
:1019F000042970DA082A3CD004DC012A07D0042A22
:101A00006AD11DE0102A4DD0202A7FD165E001EB7C
:101A100041074FEA470CC1F340070CEB870702FA76
:101A200007F7D3F800C007EA0C0601EB41074FEABD
:101A3000C70C03F1240757F80C7007F0800566E027
:101A400001EB41074FEA470CC1F340070CEB870756
:101A500002FA07F7D3F800C007EA0C0601EB4107CA
:101A60004FEAC70C03F1100757F80C7007F0020596
:101A70004DE001EB41074FEA470CC1F340070CEB87
:101A8000870702FA07F7D3F800C007EA0C0601EB54
:101A900041074FEAC70C03F1100757F80C7007F025
:101AA000040534E001EB41074FEA470CC1F340075E
:101AB0000CEB870702FA07F7D3F800C007EA0C0619
:101AC00001EB41074FEAC70C03F1100757F80C7000
:101AD00007F008051BE01BE018E001EB41074FEAA7
:101AE000470CC1F340070CEB870702FA07F7D3F85E
:101AF00000C007EA0C0601EB41074FEAC70C03F1EF
:101B0000100757F80C7007F0100500E000BF8FE0D9
:101B1000271FFCB2082A3CD004DC012A07D0042A83
:101B20007ED11DE0102A4DD0202A7FD163E004EB46
:101B300044074FEA470CC4F340070CEB870702FA4F
:101B400007F7D3F804C007EA0C0601EB41074FEA98
:101B5000C70C03F1240757F80C7007F0800566E006
:101B600004EB44074FEA470CC4F340070CEB87072C
:101B700002FA07F7D3F804C007EA0C0601EB4107A5
:101B80004FEAC70C03F1100757F80C7007F0020575
:101B90004DE004EB44074FEA470CC4F340070CEB5D
:101BA000870702FA07F7D3F804C007EA0C0601EB2F
:101BB00041074FEAC70C03F1100757F80C7007F004
:101BC000040534E004EB44074FEA470CC4F3400734
:101BD0000CEB870702FA07F7D3F804C007EA0C06F4
:101BE00001EB41074FEAC70C03F1100757F80C70DF
:101BF00007F008051BE004EB44074FEA470CC4F369
:101C000040070CEB870702FA07F7D3F804C007EA8E
:101C10000C0601EB41074FEAC70C03F1100700E087
:101C200004E057F80C7007F0100500E000BF00BF9B
:101C300016B10DB1012000E00020F0BD70B501EB40
:101C40004104E50000F12404645924F0040501EB8B
:101C50004104E60000F12404A55101EB4104E60033
:101C600000F118041568A55101EB4104E60000F1EC
:101C70001C049568A55101EB4104E60000F1140431
:101C8000D569A55101EB4104E50000F11004635949
:101C90003F4C2340146944EA8404156A2C43956937
:101CA0002C43234301EB4104E50000F11004635190
:101CB000546874B901EB4104E50000F11004645963
:101CC00044F4007501EB4104E60000F11004A55155
:101CD0001FE05468012C0ED101EB4104E50000F136
:101CE0001004645924F4007501EB4104E60000F18E
:101CF0001004A5510DE001EB4104E50000F11004D2
:101D0000645944F4004501EB4104E60000F110047D
:101D1000A551D46874B901EB4104E50000F1100449
:101D2000645944F4806501EB4104E60000F11004BD
:101D3000A5510DE001EB4104E50000F110046459E8
:101D400024F4806501EB4104E60000F11004A55184
:101D5000546974B901EB4104E50000F110046459C1
:101D600044F4807501EB4104E60000F11004A55134
:101D70000DE001EB4104E50000F11004645924F486
:101D8000807501EB4104E60000F11004A55170BD1F
:101D90003F87FCFF10B501EB4103DC0000F11403A9
:101DA0001A5110BD01490860704700000C3C024008
:101DB0000348006840F00040014908607047000097
:101DC000103C024010B50346012400BF00F03AF871
:101DD00004465B1E012C01D1002BF7D103B9072467
:101DE000204610BD30B5044600256FF03040FFF7A7
:101DF000E9FF05460DBB1248006820F0F8001049C5
:101E000008600846006844F0020108430C49086075
:101E10000846006840F4803008606FF03040FFF7FB
:101E2000D1FF05460648006820F00200044908601A
:101E30000846006820F0F8000860284630BD000021
:101E4000103C02400020114A116801F480320AB1AE
:101E5000012019E001F480720AB1022014E001F0BF
:101E600080020AB103200FE001F040020AB1042011
:101E70000AE001F010020AB1052005E001F00202BB
:101E80000AB1062000E00020704700000C3C024030
:101E90000548006800F0004028B1044802490C39A8
:101EA0000860034808607047103C02402301674502
:101EB000AB89EFCD70B504460D4600266FF030407B
:101EC000FFF780FF0646DEB90E48006820F4407038
:101ED0000C4908600846006840F400700860084635
:101EE000006840F00100086025606FF03040FFF7A7
:101EF00069FF06460348006820F0010001490860B8
:101F0000304670BD103C024070B504460D46E1B24B
:101F1000054801F007FC00BF0721034801F079FCE8
:101F20000028F9D0204670BD0010014000487047DD
:101F300000030303F0B503461C6A5D6A00200DE050
:101F40000126864016403EB187000F26BE40B443AE
:101F5000860001FA06F63443461CB0B20828EFD3D7
:101F6000082011E00126864016405EB1A0F1080667
:101F7000B7000F26BE40B543A0F10806B60001FA2F
:101F800006F63543461CB0B21028EBD31C625D62E6
:101F9000F0BD81627047816170470246002013697D
:101FA0000B400BB1012000E000207047F0B5044663
:101FB0000D4616462168E268002019E00127874097
:101FC0001F409FB14FEA400C032707FA0CF7B943B3
:101FD000470005FA07F739434FEA400C032707FA91
:101FE0000CF7BA43470006FA07F73A43471CB8B262
:101FF0001028E3D32160E260F0BDF0B50C46154631
:10200000012C03D146681E43466002E046689E43A9
:102010004660826800210DE001268E401E403EB1E0
:102020004F000326BE40B2434E0005FA06F6324387
:102030004E1CB1B21029EFD38260F0BD70B50446DA
:102040002568294609A0FEF7A9FC20680C4908402C
:10205000B0F1005F08D160680A490860206801F0AB
:1020600026F808480068804770BD0000D5BBB6A5BB
:10207000B5D8D6B7203D203078253038580D0A0025
:102080000000F02F0C0000202DE9FF5F06460F46F0
:1020900090460025B3463C46A94625E020780090AE
:1020A00060780190A0780290E0780390DDE900016B
:1020B00040EA0120029940EA0140039940EA016A9E
:1020C000241D2846691C8DB20C4941F820A0802DA2
:1020D00006D1002580225846FFF7BEFA0BF5007B9B
:1020E00009F104001FFA80F9C145D7D325B12A466A
:1020F00002495846FFF7B0FABDE8FF9F44000020B0
:1021000010B54FF480710648FFF745FF4FF400719A
:102110000348FFF740FF01210248FFF73CFF10BDD5
:10212000000402400010024010B54FF480710648D0
:10213000FFF72FFF4FF400710348FFF72AFF01213B
:102140000248FFF726FF10BD0004024000100240C5
:1021500070B50546642095FBF0F100FB1150C4B248
:10216000322C08DA0A48007828B90120084908709A
:10217000FFF7DAFF0AE0322C08DB05480078012877
:1021800004D1002002490870FFF7BAFF70BD0000BB
:102190000000002001F024F84FF47A710420FEF7CB
:1021A0004FFFFFF799F9FEF74DFF4FF4E130FEF7CF
:1021B000E3FE002306224FF47A71C806FFF79AF86F
:1021C000FEF7A2FFFEF786FFFEF7C2F9FEF7E4F87E
:1021D00001F068F906E004A0FEF7E0FB4FF47A7026
:1021E000FFF70EFBF7E700000A626F6F746C6F6118
:1021F0006465722072756E206572726F722E2E2E5B
:102200000A00000010B501460023002207E00B4839
:1022100050F8210030F8120000B15B1C521C084835
:1022200050F821009042F2D864205843044C54F8EE
:102230002140B0FBF4F0C0B210BD00003800002017
:10224000BC38000870B505460C4604B970BD054899
:1022500050F82500261A3146284600F019F800BF2C
:10226000F4E700003400002070B504460E46314605
:10227000204600F065F80546681C08B9002070BDCE
:10228000024850F824002844F9E7000034000020F8
:102290002DE9F04104460E461548005D38B9144852
:1022A00010380168204688470120BDE8F0811148B8
:1022B00050F82400B04219D90F4850F82400B6FB5A
:1022C000F0F10B48001F50F8240030F811200025D1
:1022D00008E000230648001F50F824004F1920F89A
:1022E00017306D1C9542F4D30020DEE70220DCE7B6
:1022F0003C000020C4380008C038000810B504466F
:102300000C4951F824104A000B4951F824000021CF
:1023100000F06EF8094951F824200749091F51F8C7
:102320002400002100F064F801210348001D01553C
:1023300010BD0000BC38000838000020C438000878
:102340002DE9F04704460F460025A9462548005DC3
:1023500020B9244810380168204688471FB94FF03B
:10236000FF30BDE8F087204850F82400B7FBF0F0BC
:1023700086B21D4850F82400B7FBF0F100FB117045
:1023800008B1701C86B2194850F82400451E24E09C
:102390001448001F50F8240030F8150020B909F146
:1023A00001001FFA80F901E04FF00009B14513D197
:1023B0004FF0000809E00B48001F50F8240005EB1F
:1023C000080120F8116008F10108B045F3D3064870
:1023D00050F824006843C4E76D1E002DD8DA4FF092
:1023E000FF30BEE73C000020C0380008BC380008C1
:1023F00030B5034601E003F8011B141EA2F10102EF
:10240000F9D130BD2DE9F04F03460E4617463D4841
:10241000006800F4E060B0F5A06F0FD006DCB0F506
:10242000407F0DD0B0F5806F0BD108E0B0F5C06FE4
:1024300003D0B0F5E06F04D100BF00BF00BF00BF04
:1024400004E04FF4A06000F061F800BF00BF00BFDF
:102450002C480068C0F30220044620463246BC46A1
:102460000146C1F1070ABAF1040F02D94FF0040A7C
:1024700001E0C1F1070AD14601F1040ABAF1070FE0
:1024800002D24FF0000A01E0A1F1030AD0464FF05A
:10249000010A0AFA09FAAAF1010A0AEA020A0AFA80
:1024A00008FA4FF0010B0BFA08FBABF1010B0BEA3A
:1024B0000C0B4AEA0B0500BF1946284600290BDA27
:1024C00002074FEA12680F4A0C3201F00F0CACF110
:1024D000040C02F80C8005E002074FEA126C0A4A6D
:1024E00002F801C000BF00BF03F01F0101208840B7
:1024F0005909890001F1E021C1F8000100BFBDE8E0
:10250000F08F00000CED00E000E400E00249014320
:10251000024A1160704700000000FA050CED00E06F
:10252000034A0A400243034B1A60BFF34F8F7047C0
:1025300080FFFF1F08ED00E00348006840F0807056
:102540000149086070470000743802402DE9F04FDF
:102550008CB0064600200A903EA090E8004CC0686F
:10256000CDE905BECDF810A007900FF2EC0ADAE92C
:10257000000ACDE9020A0FF2E00ADAE9000ACDE921
:10258000000A38480068C0F381000B900B9820B116
:10259000012804D0022828D103E0334927E0334939
:1025A00025E03048001F006800F03F072D48001F5D
:1025B0000068C0F3881C2B48001F0068C0F301406E
:1025C000401C4FEA40092748001F006800F48008BB
:1025D000B8F5800F01D1254B00E0234BB3FBF7F09A
:1025E00000FB0CF0B0FBF9F101E01F4900BF00BF98
:1025F0001C480068C0F3031404A8055D21FA05F225
:1026000018480068C0F3822402A8055D22FA05F08C
:10261000099014480068C0F342341DF8045022FAAF
:1026200005F0089036B1012E06D0022E06D0032EFA
:102630000AD106E00A9108E00A9206E009980A9099
:1026400003E008980A9000E000BF00BF0A980CB0B1
:10265000BDE8F08F0000000000000000010203044C
:1026600006070809083802400024F40040787D017C
:1026700010B501460020074B03EB9112D2F8002859
:1026800001F01F040123A3401A400AB1012000E019
:10269000002010BD00300240074A02EB9011D1F833
:1026A000001800F01F0301229A401143024B03EB74
:1026B0009012C2F80018704700300240074A02EB3F
:1026C0009011D1F8001800F01F0301229A409143A5
:1026D000024B03EB9012C2F8001870470030024022
:1026E000074A02EB9011D1F8001800F01F030122F5
:1026F0009A401143024B03EB9012C2F80018704746
:10270000003002406FF08071884205D105490968A8
:102710000140044A116004E0024909680143014A8A
:10272000116070478C38024010B504460448406977
:10273000A0F580611022204600F06CFA10BD000068
:10274000442200202DE9F05F07460D46164616B9D3
:102750000120BDE8F09F3E484069A84201D8002012
:10276000F7E73B48008BB04201DA0020F1E7324640
:102770002946384800F04EFA324639463548FDF7CA
:1027800076FD08B90120E4E74FF0000A32463946E9
:10279000304800F01BF908B14FF0010A2C48008BBB
:1027A000401E25EA00082A48008BB0420BD10024C5
:1027B00004E0385D27490855601C84B22448008B2A
:1027C000A042F6DC10E02248028B4146214800F08E
:1027D00021FA1F48008B401E284084B21D49081969
:1027E00032463946FDF731FD4FF0000B00242AE058
:1027F000BAF1010F02D1404600F0B0F81448028B44
:102800004146144800F0F6F832463946284600F0B2
:1028100023F810B94FF0010B17E03246394628462D
:1028200000F01AF810B94FF0010B0EE04FF000095C
:1028300003E009F101001FFA80F942F210708145AE
:10284000F7DB601C84B2032CD2DB00BF584680E764
:1028500044220020602200202DE9F04705460E4664
:102860001746E81939494969884202D90120BDE86B
:10287000F0870FB90020FAE7002000F0E3FA00200B
:10288000334908600321324802680068401C304B1D
:10289000186030488154C5F3074118460268006843
:1028A000401C18602B488154C5F307221846016864
:1028B0000068401C186027484254184602680068A7
:1028C000401C186023488554FEF746FF4FF000096E
:1028D00017E04FF480501E490860FEF73DFF0024CA
:1028E00008E016F8011B1C48005D814200D027E07B
:1028F000601C84B2B4F5805FF3DB09F101001FFABC
:1029000080F9B9EB173FE4D3C7F30B08B8F1000F18
:1029100011DD0F48C0F80080FEF71EFF002408E01C
:1029200016F8011B0C48005D814200D008E0601CD5
:1029300084B24445F4DB012000F084FA002096E7DD
:10294000012000F07FFA012091E7000044220020DE
:102950001C000020440200204412002010B5044650
:1029600000F05EFB002000F06DFA002015490860C1
:102970002021144802680068401C124B186012485D
:102980008154C4F30742184601680068401C18606F
:102990000D484254C4F30722184601680068401CE1
:1029A000186009484254184601680068401C1860C5
:1029B00005484454FEF7D0FE012000F043FA00F031
:1029C00055FA10BD1C0000204402002070B50346DB
:1029D00000240BE013F8015BE843C5B211F8010BCA
:1029E000284008B1012070BD601C84B29442F1DB24
:1029F0000020F8E72DE9F04104460E4615468148CF
:102A00000068814988427DD1022D08DA284605EB0D
:102A1000D0714910A5EB410109B1BDE8F08100F08A
:102A2000FFFA002000F00EFA002078490860AD217E
:102A3000764802680068401C744B186074488154E2
:102A4000C6F30741184602680068401C18607048C9
:102A50008154C6F30721184602680068401C1860BC
:102A60006B488154184602680068401C186068482A
:102A7000865414F8011B184602680068401C186050
:102A80006348815414F8011B184602680068401C12
:102A900018605F488154FEF75FFE012000F0D2F914
:102AA00000F0E4F9A81E85B2002728E0002000F01D
:102AB000C9F9002055490860AD21544802680068F2
:102AC000401C524B18605248815414F8011B1846A0
:102AD00002680068401C18604D48815414F8011BBE
:102AE000184602680068401C186049488154FEF787
:102AF00033FE012000F0A6F900F0B8F97F1C05EBC9
:102B0000D57100E019E0B7EB610FCFD3002000F0E2
:102B100099F900203D49086004213C48026800689A
:102B2000401C3A4B18603A488154FEF715FE0120CC
:102B300000F088F900F09AF962E04FF0000843E0F5
:102B400000F06EFA002000F07DF900202F490860A7
:102B500002212E4802680068401C2C4B18602C484B
:102B60008154C6F30741184602680068401C18608B
:102B700027488154C6F30721184602680068401CA4
:102B8000186023488154184602680068401C186089
:102B90001F48865400270AE014F8011B1B480268EE
:102BA0000068401C194B1860194881547F1CFF2F86
:102BB000F2D9FEF7D1FD012000F044F900F056F9FA
:102BC00006F5807608F10108E91705EB1161B8EB0D
:102BD000212FB5D3002000F035F900200B49086003
:102BE00004210A4802680068401C084B1860084825
:102BF0008154FEF7B1FD012000F024F900F036F910
:102C000000BF0AE7442200204125BF001C0000202D
:102C1000440200202DE9F04180460C46154625B1BE
:102C200060192B494969884201D9BDE8F08100202B
:102C300000F008F9002027490860032125480268B0
:102C40000068401C234B186023488154C4F307419B
:102C5000184602680068401C18601F488154C4F37D
:102C60000722184601680068401C18601A48425440
:102C7000184602680068401C186017488454FEF724
:102C80006BFD00270FE04FF4805012490860FEF7FB
:102C900063FD4FF4805211494046FDF7D6FA08F51E
:102CA0008058781C87B2B7EB153FECD3C5F30B0601
:102CB000002E08DD07480660FEF74EFD3246074944
:102CC0004046FDF7C2FA012000F0BCF800BFACE7B7
:102CD000442200201C000020440200204412002056
:102CE0002DE9F041002000F0ADF800200C4908600B
:102CF0009F200C490870042009490860FEF72CFD4C
:102D0000094845788678C778012000F09BF82804A8
:102D100040EA062040EA07042046BDE8F0810000B2
:102D20001C000020440200204412002010B5FFF7D0
:102D3000D7FF30490860084600682F4A811A904240
:102D400025D007DC2D49084448B12D490844002806
:102D500041D110E0012926D002293CD12FE029A140
:102D60002448001DFDF790FA4FF4001021494861F6
:102D7000401208833BE026A11E48001DFDF784FA9F
:102D80004FF400101B494861401208832FE023A133
:102D90001848001DFDF778FA4FF480001549486186
:102DA0008012088323E01FA11248001DFDF76CFA72
:102DB0004FF400000F494861C012088317E01BA1BF
:102DC0000C48001DFDF760FA4FF08070094948611A
:102DD000001308830BE017A10648001DFDF754FA05
:102DE0004FF40010034948614012088300BF00BF40
:102DF00010BD0000442200201640EF00BFDA40FF63
:102E00002C05FDFF535354323556463031364200BF
:102E10004D5832354C313630364500005732355139
:102E200033320000573235513634000057323551B5
:102E300031323800556E6B6E6F7720466C61736867
:102E40000000000010B5044634B9FEF7F9FB8021FC
:102E50000548FFF79EF805E080210348FFF79BF83F
:102E6000FEF7F4FB10BD0000000C024010B500207E
:102E7000FFF7E8FF05201249087002201149086099
:102E8000FEF76AFC0120FFF7DDFF15E00020FFF7E9
:102E9000D9FF05200A49087000204870022009491E
:102EA0000860FEF759FC0120FFF7CCFF0648407888
:102EB00000F0010000B900E0E8E700BF10BD00002D
:102EC000440200201C000020441200202DE9F05F85
:102ED00007460E4615464FF00009C846C246002474
:102EE000A3464E48008BB6FBF0F100FB116A4B483D
:102EF000008BA0EB0A044948008BB5FBF0F947486A
:102F0000008BB5FBF0F100FB1158BAF1000F29D18D
:102F1000B9F1000F08D1AAB231463846FFF712FCCA
:102F2000002878D1BDE8F09F0EE03C48028B314686
:102F30003846FFF707FC08B90020F3E73748008B55
:102F400006443648008B0744B9F10000A9F1010995
:102F5000EBD11FFA88F231463846FFF7F3FB002821
:102F600059D1DFE7B9F1000F1ED1A04514D9A8EB64
:102F7000040BA2B231463846FFF7E4FB08B9002043
:102F8000D0E7264427441FFA8BF231463846FFF734
:102F9000D9FB00283FD1C5E7AAB231463846FFF732
:102FA000D1FBB8BB0020BDE72D1B1C48008BB5FB37
:102FB000F0F91A48008BB5FBF0F100FB1158A2B2F2
:102FC00031463846FFF7BEFB08B90020AAE7264481
:102FD00027440EE01148028B31463846FFF7B2FB1A
:102FE00008B900209EE70D48008B06440B48008B73
:102FF0000744B9F10000A9F10109EBD1B8F1000FC4
:1030000009D01FFA88F231463846FFF79BFB08B912
:10301000002087E7FFE7012084E70000442200202A
:1030200010B50020FFF70EFF0020084908600621B8
:10303000064802680068401C044B1860044881542C
:10304000FEF78AFB0120FFF7FDFE10BD1C000020EB
:103050004402002021B9426842F00202426003E0CB
:10306000426842F0010242607047016841F040014D
:10307000016070470146C86880B270470246002070
:10308000106800F441500B6818434B6818438B6874
:103090001843CB6818430B6918434B6918438B6975
:1030A00018431060D36923F40063D361704700BFF5
:1030B00080F3088800BF70474A0A52020243014B5E
:1030C0001A60704708ED00E008B5002000213F4A73
:1030D000126842F480323D4B1A6000BF401C3B4AEC
:1030E000126802F4003119B94FF6FF729042F5D11F
:1030F000364A126802F4003232B900BF334A12680D
:1031000002F40032002AF9D0304A4032126842F00C
:1031100080522E4B40331A602D4A126842F44042CE
:103120002B4B1A60294A08321268284B08331A6060
:103130001A46126842F400421A601A46126842F4B3
:10314000A0521A60234A1B1F1A601A1F126842F00D
:1031500080721B1F1A6000BF1C4A126802F00072C6
:10316000002AF9D01A4A126842F48032184B1A60C9
:1031700000BF174A526802F48032002AF9D0144A7C
:10318000126842F40032124B1A6000BF104A5268B3
:1031900002F40032002AF9D00C4A08321268009278
:1031A000009A22F003020092009A42F0020200927A
:1031B000064B0833009A1A6000BF044A08321268AE
:1031C00002F00802002AF8D008BD000000380240D2
:1031D000007000401978400A10B5FFF775FF10BD68
:1031E00010B500214FF00060FFF766FF00F008F80F
:1031F000F020FEF7FFFA4FF44070FFF787F910BD9B
:1032000010B5124800684FF47A71B0FBF1F4601EFB
:10321000B0F1807F01D301200FE0601E4FF0E0216C
:1032200048610F214FF0FF30FDF77CF900204FF08F
:10323000E021886107200861002008B100BFFEE797
:103240000021481EFDF76EF910BD000004000020AB
:1032500010B504465C49601A8C426FD019DC5B499A
:10326000A4EB01008C424ED009DCB4F1804F2ED08B
:1032700057482044A0B3B0F5806F72D13AE0B0F562
:10328000806F49D0B0F5006F4FD0B0F5406FF4D1EA
:103290007BE0B0F5923F5BD009DCB0F5806F73D076
:1032A000B0F5644F0AD0B0F5684F5AD147E0B0F599
:1032B000943F57D0B0F5963F53D15CE04FF4106087
:1032C000FFF70EFA4FF41060FFF7F8F979E04FF4CA
:1032D0000060FFF705FA4FF40060FFF7EFF970E0C8
:1032E000FFE740F60100FFF7FBF940F60100FFF7AA
:1032F000E5F966E040F60200FFF7F2F940F6020059
:10330000FFF7DCF95DE040F60300FFF7E9F940F66E
:103310000300FFF7D3F954E040F60400FFF7E0F9AB
:1033200040F60400FFF7CAF94BE040F60500FFF74E
:10333000D7F940F60500FFF7C1F942E02EE040F66C
:103340000110FFF7CDF940F60110FFF7B7F938E0AB
:103350004FF41160FFF7C4F94FF41160FFF7AEF9B5
:103360002FE02DE040F61110FFF7BAF940F61110EA
:10337000FFF7A4F925E040F61210FFF7B1F940F687
:103380001210FFF79BF91CE011E040F60600FFF772
:10339000A7F940F60600FFF791F912E040F60700A2
:1033A000FFF79EF940F60700FFF788F909E040F6BD
:1033B0000800FFF795F940F60800FFF77FF900E0F5
:1033C00000BF00BF10BD0000001C0040000C00400A
:1033D00000FCFFBF016841F001010160704700007F
:1033E0000A8882621D4A90420ED0B0F1804F0BD005
:1033F0001B4A904208D01B4A904205D01A4A90427C
:1034000002D01A4A90420BD1026822F07002026088
:1034100002684B881A43026002688B881A43026074
:103420008A68C262124A90420AD0124A904207D079
:10343000026822F4407202600268CB881A4302607C
:10344000064A904202D0094A904201D10A7B0263A7
:10345000426942F0010242617047000000000140F1
:103460000004004000080040000C0040000401403F
:103470000010004000140040C2680A43C260704758
:10348000CA430261704710B502460020D46804EABE
:10349000010314690C4014B10BB1012000E00020BD
:1034A00010BD00002DE9FF41002000900190029026
:1034B00003900027804600251E260AE0FDF72AF823
:1034C0006420FEF79DF901213748FEF766FD00B93B
:1034D00004E0301EA6F10101CEB2EFD100BFC82634
:1034E00004E00A20FEF78CF9FDF714F8301EA6F16F
:1034F0000101CEB2F5D1FEF701FF6846FFF714F9DE
:10350000009801280ED029A0FDF748FA002003906A
:10351000684600F0B7F9FCF7FDFF2D48FEF78EFD79
:10352000BDE8FF812BA0FDF739FA00200090684626
:1035300000F0A8F9019800F140010020FEF794FE88
:1035400005462AA0DDE90121FDF728FA00241AE04A
:10355000FCF7E0FFE0B2FEF7FBFD31484069A0F563
:103560008010019904FB010739462846019AFFF7AC
:1035700051FB1749019804FB001829464046019A5F
:10358000FEF782FD641C0298A042E1D82946002083
:10359000FEF758FEFCF7BEFF22A0FDF7FFF90C482E
:1035A000FEF74CFD00BFBBE7000C02400ACEDED0A8
:1035B000E8C9FDBCB6A3ACD6B1BDD3D6B4D0D0203B
:1035C0006D61696E20C4A3BFE9202E2E2E0A000073
:1035D000000001080AD6B4D0D0C9FDBCB6B3CCD027
:1035E000F2202E2E2E2E2E200A0000000AD6B4D055
:1035F000D0C9FDBCB6B2CECAFD2C73656374696FC9
:103600006E5F636F756E743A2025752C2073656349
:1036100074696F6E5F73697A653A2025750A0000D8
:10362000442200200AC9FDBCB6CDEAB1CFA3A1CC8B
:10363000F8D7AA202E2E2E0A000000002DE9F04710
:1036400004460D460027B846B94600263349601A9D
:103650008C4235D00CDC32482044E8B1B0F5806FA4
:103660001FD0B0F5006F21D0B0F5406F32D122E00D
:10367000B0F5806F29D0B0F5184F03D0B0F51C4FCE
:1036800028D104E00320FEF761FF074623E0032072
:10369000FEF75CFF07461EE00220FEF757FF0746D5
:1036A00019E00220FEF752FF074614E00220FEF761
:1036B0004DFF07460FE00220FEF748FF07460AE0ED
:1036C0000220FEF743FF074605E00220FEF73EFF1B
:1036D000074600E000BF00BFE06800F4004070B1A2
:1036E000780000EB5500B0FBF5F64FF6F07006EAF7
:1036F0000008C6F3420948EA0900A0600CE007EBA5
:103700005500B0FBF5F64FF6F07006EA000806F03B
:103710000F0948EA0900A060BDE8F0870078004082
:1037200000BCFFBFC1F308024260704710B50446F9
:103730003349601A8C424DD00CDC32482044E0B151
:10374000B0F5806F22D0B0F5006F31D0B0F5406F8A
:1037500052D136E0B0F5806F45D0B0F5184F03D0A8
:10376000B0F51C4F48D11AE040F60410FEF7B8FF40
:1037700040F60410FEF7A2FF3FE040F61100FEF70E
:10378000AFFF40F61100FEF799FF36E040F6120059
:10379000FEF7A6FF40F61200FEF790FF2DE040F680
:1037A0000510FEF79DFF40F60510FEF787FF24E0A9
:1037B00040F61300FEF794FF40F61300FEF77EFF7D
:1037C0001BE040F61400FEF78BFF40F61400FEF7F6
:1037D00075FF12E040F61E00FEF782FF40F61E0065
:1037E000FEF76CFF09E040F61F00FEF779FF40F698
:1037F0001F00FEF763FF00E000BF00BF10BD000028
:103800000078004000BCFFBFC16841F40051C160B6
:10381000704730B50246002002EB91131B6801F09F
:103820001F050124AC4023400BB1012000E0002023
:1038300030BDC26822F4C062C260C2680A43C2607E
:1038400070470A460021C16821F004011143C1609C
:103850007047026922F44052026102690A43026120
:1038600070470A460021C16821F008011143C16078
:103870007047C26822F48052C260C2680A43C260C4
:103880007047000010B5044606484069A0F5806105
:1038900010222046FFF71AFB10B903A0FDF77EF8AF
:1038A00010BD000044220020D0B4B4AED0D0466C8D
:1038B000617368B3F6B4EDA3A10D0A00C003000064
:1038C0002000000000780000E83800080000002018
:1038D00044000000BC0900082C3900084400002006
:1038E0009CB50000CC09000800000000001C4E0E32
:1038F00000000000000000000000000000000000C8
:1039000000000000000000000000000000000000B7
:1039100000000000FD22000805220008603200209F
:0C39200060AA0020000000000000000071
:04000005080001AD41
:00000001FF
